{"abi":[{"type":"constructor","inputs":[{"name":"_securityCouncil","type":"address","internalType":"address"},{"name":"_guardians","type":"address","internalType":"address"},{"name":"_emergencyUpgradeBoard","type":"address","internalType":"address"},{"name":"_l2ProtocolGovernor","type":"address","internalType":"address"},{"name":"_ZKsyncEra","type":"address","internalType":"contract IZKsyncEra"},{"name":"_stateTransitionManager","type":"address","internalType":"contract IStateTransitionManager"},{"name":"_bridgeHub","type":"address","internalType":"contract IPausable"},{"name":"_sharedBridge","type":"address","internalType":"contract IPausable"}],"stateMutability":"nonpayable"},{"type":"receive","stateMutability":"payable"},{"type":"function","name":"BRIDGE_HUB","inputs":[],"outputs":[{"name":"","type":"address","internalType":"contract IPausable"}],"stateMutability":"view"},{"type":"function","name":"L2_PROTOCOL_GOVERNOR","inputs":[],"outputs":[{"name":"","type":"address","internalType":"address"}],"stateMutability":"view"},{"type":"function","name":"SHARED_BRIDGE","inputs":[],"outputs":[{"name":"","type":"address","internalType":"contract IPausable"}],"stateMutability":"view"},{"type":"function","name":"STATE_TRANSITION_MANAGER","inputs":[],"outputs":[{"name":"","type":"address","internalType":"contract IStateTransitionManager"}],"stateMutability":"view"},{"type":"function","name":"ZKSYNC_ERA","inputs":[],"outputs":[{"name":"","type":"address","internalType":"contract IZKsyncEra"}],"stateMutability":"view"},{"type":"function","name":"approveUpgradeGuardians","inputs":[{"name":"_id","type":"bytes32","internalType":"bytes32"}],"outputs":[],"stateMutability":"nonpayable"},{"type":"function","name":"approveUpgradeSecurityCouncil","inputs":[{"name":"_id","type":"bytes32","internalType":"bytes32"}],"outputs":[],"stateMutability":"nonpayable"},{"type":"function","name":"emergencyUpgradeBoard","inputs":[],"outputs":[{"name":"","type":"address","internalType":"address"}],"stateMutability":"view"},{"type":"function","name":"execute","inputs":[{"name":"_proposal","type":"tuple","internalType":"struct IProtocolUpgradeHandler.UpgradeProposal","components":[{"name":"calls","type":"tuple[]","internalType":"struct IProtocolUpgradeHandler.Call[]","components":[{"name":"target","type":"address","internalType":"address"},{"name":"value","type":"uint256","internalType":"uint256"},{"name":"data","type":"bytes","internalType":"bytes"}]},{"name":"executor","type":"address","internalType":"address"},{"name":"salt","type":"bytes32","internalType":"bytes32"}]}],"outputs":[],"stateMutability":"payable"},{"type":"function","name":"executeEmergencyUpgrade","inputs":[{"name":"_proposal","type":"tuple","internalType":"struct IProtocolUpgradeHandler.UpgradeProposal","components":[{"name":"calls","type":"tuple[]","internalType":"struct IProtocolUpgradeHandler.Call[]","components":[{"name":"target","type":"address","internalType":"address"},{"name":"value","type":"uint256","internalType":"uint256"},{"name":"data","type":"bytes","internalType":"bytes"}]},{"name":"executor","type":"address","internalType":"address"},{"name":"salt","type":"bytes32","internalType":"bytes32"}]}],"outputs":[],"stateMutability":"payable"},{"type":"function","name":"extendLegalVeto","inputs":[{"name":"_id","type":"bytes32","internalType":"bytes32"}],"outputs":[],"stateMutability":"nonpayable"},{"type":"function","name":"guardians","inputs":[],"outputs":[{"name":"","type":"address","internalType":"address"}],"stateMutability":"view"},{"type":"function","name":"hardFreeze","inputs":[],"outputs":[],"stateMutability":"nonpayable"},{"type":"function","name":"lastFreezeStatusInUpgradeCycle","inputs":[],"outputs":[{"name":"","type":"uint8","internalType":"enum IProtocolUpgradeHandler.FreezeStatus"}],"stateMutability":"view"},{"type":"function","name":"protocolFrozenUntil","inputs":[],"outputs":[{"name":"","type":"uint256","internalType":"uint256"}],"stateMutability":"view"},{"type":"function","name":"reinforceFreeze","inputs":[],"outputs":[],"stateMutability":"nonpayable"},{"type":"function","name":"reinforceFreezeOneChain","inputs":[{"name":"_chainId","type":"uint256","internalType":"uint256"}],"outputs":[],"stateMutability":"nonpayable"},{"type":"function","name":"reinforceUnfreeze","inputs":[],"outputs":[],"stateMutability":"nonpayable"},{"type":"function","name":"reinforceUnfreezeOneChain","inputs":[{"name":"_chainId","type":"uint256","internalType":"uint256"}],"outputs":[],"stateMutability":"nonpayable"},{"type":"function","name":"securityCouncil","inputs":[],"outputs":[{"name":"","type":"address","internalType":"address"}],"stateMutability":"view"},{"type":"function","name":"softFreeze","inputs":[],"outputs":[],"stateMutability":"nonpayable"},{"type":"function","name":"startUpgrade","inputs":[{"name":"_l2BatchNumber","type":"uint256","internalType":"uint256"},{"name":"_l2MessageIndex","type":"uint256","internalType":"uint256"},{"name":"_l2TxNumberInBatch","type":"uint16","internalType":"uint16"},{"name":"_proof","type":"bytes32[]","internalType":"bytes32[]"},{"name":"_proposal","type":"tuple","internalType":"struct IProtocolUpgradeHandler.UpgradeProposal","components":[{"name":"calls","type":"tuple[]","internalType":"struct IProtocolUpgradeHandler.Call[]","components":[{"name":"target","type":"address","internalType":"address"},{"name":"value","type":"uint256","internalType":"uint256"},{"name":"data","type":"bytes","internalType":"bytes"}]},{"name":"executor","type":"address","internalType":"address"},{"name":"salt","type":"bytes32","internalType":"bytes32"}]}],"outputs":[],"stateMutability":"nonpayable"},{"type":"function","name":"unfreeze","inputs":[],"outputs":[],"stateMutability":"nonpayable"},{"type":"function","name":"updateEmergencyUpgradeBoard","inputs":[{"name":"_newEmergencyUpgradeBoard","type":"address","internalType":"address"}],"outputs":[],"stateMutability":"nonpayable"},{"type":"function","name":"updateGuardians","inputs":[{"name":"_newGuardians","type":"address","internalType":"address"}],"outputs":[],"stateMutability":"nonpayable"},{"type":"function","name":"updateSecurityCouncil","inputs":[{"name":"_newSecurityCouncil","type":"address","internalType":"address"}],"outputs":[],"stateMutability":"nonpayable"},{"type":"function","name":"upgradeState","inputs":[{"name":"_id","type":"bytes32","internalType":"bytes32"}],"outputs":[{"name":"","type":"uint8","internalType":"enum IProtocolUpgradeHandler.UpgradeState"}],"stateMutability":"view"},{"type":"function","name":"upgradeStatus","inputs":[{"name":"upgradeId","type":"bytes32","internalType":"bytes32"}],"outputs":[{"name":"creationTimestamp","type":"uint48","internalType":"uint48"},{"name":"securityCouncilApprovalTimestamp","type":"uint48","internalType":"uint48"},{"name":"guardiansApproval","type":"bool","internalType":"bool"},{"name":"guardiansExtendedLegalVeto","type":"bool","internalType":"bool"},{"name":"executed","type":"bool","internalType":"bool"}],"stateMutability":"view"},{"type":"event","name":"ChangeEmergencyUpgradeBoard","inputs":[{"name":"_emergencyUpgradeBoardBefore","type":"address","indexed":true,"internalType":"address"},{"name":"_emergencyUpgradeBoardAfter","type":"address","indexed":true,"internalType":"address"}],"anonymous":false},{"type":"event","name":"ChangeGuardians","inputs":[{"name":"_guardiansBefore","type":"address","indexed":true,"internalType":"address"},{"name":"_guardiansAfter","type":"address","indexed":true,"internalType":"address"}],"anonymous":false},{"type":"event","name":"ChangeSecurityCouncil","inputs":[{"name":"_securityCouncilBefore","type":"address","indexed":true,"internalType":"address"},{"name":"_securityCouncilAfter","type":"address","indexed":true,"internalType":"address"}],"anonymous":false},{"type":"event","name":"EmergencyUpgradeExecuted","inputs":[{"name":"_id","type":"bytes32","indexed":true,"internalType":"bytes32"}],"anonymous":false},{"type":"event","name":"HardFreeze","inputs":[{"name":"_protocolFrozenUntil","type":"uint256","indexed":false,"internalType":"uint256"}],"anonymous":false},{"type":"event","name":"ReinforceFreeze","inputs":[],"anonymous":false},{"type":"event","name":"ReinforceFreezeOneChain","inputs":[{"name":"_chainId","type":"uint256","indexed":false,"internalType":"uint256"}],"anonymous":false},{"type":"event","name":"ReinforceUnfreeze","inputs":[],"anonymous":false},{"type":"event","name":"ReinforceUnfreezeOneChain","inputs":[{"name":"_chainId","type":"uint256","indexed":false,"internalType":"uint256"}],"anonymous":false},{"type":"event","name":"SoftFreeze","inputs":[{"name":"_protocolFrozenUntil","type":"uint256","indexed":false,"internalType":"uint256"}],"anonymous":false},{"type":"event","name":"Unfreeze","inputs":[],"anonymous":false},{"type":"event","name":"UpgradeApprovedByGuardians","inputs":[{"name":"_id","type":"bytes32","indexed":true,"internalType":"bytes32"}],"anonymous":false},{"type":"event","name":"UpgradeApprovedBySecurityCouncil","inputs":[{"name":"_id","type":"bytes32","indexed":true,"internalType":"bytes32"}],"anonymous":false},{"type":"event","name":"UpgradeExecuted","inputs":[{"name":"_id","type":"bytes32","indexed":true,"internalType":"bytes32"}],"anonymous":false},{"type":"event","name":"UpgradeLegalVetoExtended","inputs":[{"name":"_id","type":"bytes32","indexed":true,"internalType":"bytes32"}],"anonymous":false},{"type":"event","name":"UpgradeStarted","inputs":[{"name":"_id","type":"bytes32","indexed":true,"internalType":"bytes32"},{"name":"_proposal","type":"tuple","indexed":false,"internalType":"struct IProtocolUpgradeHandler.UpgradeProposal","components":[{"name":"calls","type":"tuple[]","internalType":"struct IProtocolUpgradeHandler.Call[]","components":[{"name":"target","type":"address","internalType":"address"},{"name":"value","type":"uint256","internalType":"uint256"},{"name":"data","type":"bytes","internalType":"bytes"}]},{"name":"executor","type":"address","internalType":"address"},{"name":"salt","type":"bytes32","internalType":"bytes32"}]}],"anonymous":false}],"bytecode":{"object":"0x61012060405234801562000011575f80fd5b506040516200295738038062002957833981016040819052620000349162000161565b87878787878787875f80546001600160a01b0319166001600160a01b038a1690811782556040519091907fe55ac8ae7914efca1278b8ed4ae21728d06ad9f6e7637bb2c905aacf2a6f5951908290a3600180546001600160a01b0319166001600160a01b0389169081179091556040515f907ffbb8d9e9607c95042daed3ce66316805e80c575253e2b5a83eb10cb97ac23d88908290a3600280546001600160a01b0319166001600160a01b0388169081179091556040515f907f892b24306024c8b484d205b00cd0b9b7ff3f38781a6ed6686c60ef2c59d76670908290a36001600160a01b0394851660805292841660a05290831660c052821660e0521661010052506200021d9950505050505050505050565b6001600160a01b03811681146200015e575f80fd5b50565b5f805f805f805f80610100898b0312156200017a575f80fd5b8851620001878162000149565b60208a01519098506200019a8162000149565b60408a0151909750620001ad8162000149565b60608a0151909650620001c08162000149565b60808a0151909550620001d38162000149565b60a08a0151909450620001e68162000149565b60c08a0151909350620001f98162000149565b60e08a01519092506200020c8162000149565b809150509295985092959890939650565b60805160a05160c05160e051610100516126a8620002af5f395f818161031801528181611a8f0152611c9201525f818161036a01528181611a250152611c2801525f818161026c01528181610628015281816107e8015281816118fb0152818161198c01528181611afe0152611b8f01525f81816105c5015261100d01525f81816102e50152610fce01526126a85ff3fe6080604052600436106101b2575f3560e01c806374f5d9d2116100e7578063c54dd62811610087578063dbfe3e9611610062578063dbfe3e961461054a578063ea3e739b14610569578063ec1507cb14610588578063f12913d8146105b4575f80fd5b8063c54dd628146104fc578063d370613214610510578063d6f7e8da14610536575f80fd5b80639c5392da116100c25780639c5392da14610411578063a1dcb9b814610430578063b429f41c14610443578063b9d1f21a14610462575f80fd5b806374f5d9d2146103bf5780637aedf337146103de57806384a20db8146103fd575f80fd5b80634523da36116101525780635a81d4ba1161012d5780635a81d4ba1461033a5780635d4edca714610359578063691616c51461038c5780636a28f000146103ab575f80fd5b80634523da36146102c15780634717bd36146102d4578063546b6d2a14610307575f80fd5b806327eb6c0f1161018d57806327eb6c0f1461023d5780633083f0c81461025b578063314e6ebe1461028e578063407626b5146102a2575f80fd5b80630855b2e1146101bd57806308ee01eb146101de5780630ed505a21461021a575f80fd5b366101b957005b5f80fd5b3480156101c8575f80fd5b506101dc6101d7366004611edd565b6105e7565b005b3480156101e9575f80fd5b506002546101fd906001600160a01b031681565b6040516001600160a01b0390911681526020015b60405180910390f35b348015610225575f80fd5b5061022f60055481565b604051908152602001610211565b348015610248575f80fd5b505f546101fd906001600160a01b031681565b348015610266575f80fd5b506101fd7f000000000000000000000000000000000000000000000000000000000000000081565b348015610299575f80fd5b506101dc6106c3565b3480156102ad575f80fd5b506101dc6102bc366004611edd565b6107b2565b6101dc6102cf366004611f0a565b610878565b3480156102df575f80fd5b506101fd7f000000000000000000000000000000000000000000000000000000000000000081565b348015610312575f80fd5b506101fd7f000000000000000000000000000000000000000000000000000000000000000081565b348015610345575f80fd5b506001546101fd906001600160a01b031681565b348015610364575f80fd5b506101fd7f000000000000000000000000000000000000000000000000000000000000000081565b348015610397575f80fd5b506101dc6103a6366004611f5f565b610a5a565b3480156103b6575f80fd5b506101dc610ad4565b3480156103ca575f80fd5b506101dc6103d9366004611edd565b610c77565b3480156103e9575f80fd5b506101dc6103f8366004611f5f565b610dff565b348015610408575f80fd5b506101dc610e79565b34801561041c575f80fd5b506101dc61042b366004611f7f565b610f98565b6101dc61043e366004611f0a565b611264565b34801561044e575f80fd5b506101dc61045d366004611edd565b6113ae565b34801561046d575f80fd5b506104c261047c366004611edd565b60036020525f908152604090205465ffffffffffff80821691600160301b81049091169060ff600160601b8204811691600160681b8104821691600160701b9091041685565b6040805165ffffffffffff96871681529590941660208601529115159284019290925290151560608301521515608082015260a001610211565b348015610507575f80fd5b506101dc61151e565b34801561051b575f80fd5b506004546105299060ff1681565b604051610211919061204f565b348015610541575f80fd5b506101dc611570565b348015610555575f80fd5b506101dc610564366004611f5f565b6115c4565b348015610574575f80fd5b506101dc610583366004611edd565b61163c565b348015610593575f80fd5b506105a76105a2366004611edd565b611766565b6040516102119190612069565b3480156105bf575f80fd5b506101fd7f000000000000000000000000000000000000000000000000000000000000000081565b6005544211156106125760405162461bcd60e51b81526004016106099061207d565b60405180910390fd5b604051632b33745b60e21b8152600481018290527f00000000000000000000000000000000000000000000000000000000000000006001600160a01b03169063accdd16c906024015f604051808303815f87803b158015610671575f80fd5b505af1158015610683573d5f803e3d5ffd5b505050507fe2b6c70f0bb14be8c1be3a3875d171dd198b1f9f2d35972501b91c0fc6c1b0ce816040516106b891815260200190565b60405180910390a150565b5f546001600160a01b031633146106ec5760405162461bcd60e51b8152600401610609906120be565b5f6004805460ff16908111156107045761070461203b565b146107515760405162461bcd60e51b815260206004820152601760248201527f50726f746f636f6c20616c72656164792066726f7a656e0000000000000000006044820152606401610609565b6004805460ff1916600117905561076a61a8c042612114565b6005556107756118f8565b7f24f7761883b592e1cb80bcb0b5ad54822c7ed844019f3459111f131715d1ecc96005546040516107a891815260200190565b60405180910390a1565b600554156107d25760405162461bcd60e51b815260040161060990612139565b6040516351d218f760e01b8152600481018290527f00000000000000000000000000000000000000000000000000000000000000006001600160a01b0316906351d218f7906024015f604051808303815f87803b158015610831575f80fd5b505af1158015610843573d5f803e3d5ffd5b505050507fa938747b1cf8e014275de2758fc8d441002154a94bca459b291cbbbeb0c7c89d816040516106b891815260200190565b6002546001600160a01b031633146108f85760405162461bcd60e51b815260206004820152603d60248201527f4f6e6c7920456d657267656e6379205570677261646520426f6172642069732060448201527f616c6c6f77656420746f2063616c6c20746869732066756e6374696f6e0000006064820152608401610609565b5f8160405160200161090a919061217c565b6040516020818303038152906040528051906020012090505f61092c82611766565b90505f8160068111156109415761094161203b565b146109875760405162461bcd60e51b81526020600482015260166024820152755570677261646520616c72656164792065786973747360501b6044820152606401610609565b336109986040850160208601611f5f565b6001600160a01b0316146109be5760405162461bcd60e51b8152600401610609906122d7565b5f828152600360205260408120805460ff60701b1916600160701b1790556004805460ff191690556005556109f1611afb565b610a036109fe848061232a565b611ce8565b6040517f2f05ba71d0df11bf5fa562a6569d70c4f80da84284badbe015ce1456063d0ded905f90a160405182907f39f6aeadc0239b46b37917ee1c12e98f9cd3a5dea6c038efa22af67471128e51905f90a2505050565b333014610a795760405162461bcd60e51b815260040161060990612377565b6001546040516001600160a01b038084169216907ffbb8d9e9607c95042daed3ce66316805e80c575253e2b5a83eb10cb97ac23d88905f90a3600180546001600160a01b0319166001600160a01b0392909216919091179055565b5f546001600160a01b0316331480610af9575060055415801590610af9575060055442115b610b915760405162461bcd60e51b815260206004820152605760248201527f4f6e6c7920536563757269747920436f756e63696c20697320616c6c6f77656460448201527f20746f2063616c6c20746869732066756e6374696f6e206f722074686520707260648201527f6f746f636f6c2073686f756c642062652066726f7a656e000000000000000000608482015260a401610609565b60016004805460ff1690811115610baa57610baa61203b565b03610bc957600480546003919060ff19166001835b0217905550610c41565b60026004805460ff1690811115610be257610be261203b565b03610bf95760048054819060ff1916600182610bbf565b60405162461bcd60e51b815260206004820152601d60248201527f556e6578706563746564206c61737420667265657a65207374617475730000006044820152606401610609565b5f600555610c4d611afb565b6040517f2f05ba71d0df11bf5fa562a6569d70c4f80da84284badbe015ce1456063d0ded905f90a1565b6001546001600160a01b03163314610ca15760405162461bcd60e51b8152600401610609906123e2565b5f81815260036020526040902054600160601b900460ff1615610d175760405162461bcd60e51b815260206004820152602860248201527f5570677261646520697320616c726561647920617070726f76656420627920676044820152677561726469616e7360c01b6064820152608401610609565b5f610d2182611766565b90506002816006811115610d3757610d3761203b565b14610db65760405162461bcd60e51b815260206004820152604360248201527f5570677261646520776974682074686973206964206973206e6f74207761697460448201527f696e6720666f722074686520617070726f76616c2066726f6d20477561726469606482015262616e7360e81b608482015260a401610609565b5f82815260036020526040808220805460ff60601b1916600160601b1790555183917f4bdba07411d36daebbfc1a5062f25d0d02c753374c8498aec76d5954c707682a91a25050565b333014610e1e5760405162461bcd60e51b815260040161060990612377565b6002546040516001600160a01b038084169216907f892b24306024c8b484d205b00cd0b9b7ff3f38781a6ed6686c60ef2c59d76670905f90a3600280546001600160a01b0319166001600160a01b0392909216919091179055565b5f546001600160a01b03163314610ea25760405162461bcd60e51b8152600401610609906120be565b60045460ff165f816004811115610ebb57610ebb61203b565b1480610ed857506001816004811115610ed657610ed661203b565b145b80610ef457506003816004811115610ef257610ef261203b565b145b610f405760405162461bcd60e51b815260206004820152601d60248201527f50726f746f636f6c2063616e277420626520686172642066726f7a656e0000006044820152606401610609565b6004805460ff19166002179055610f5a62093a8042612114565b600555610f656118f8565b7f8cfb4dcbe7dce698c042e43e42e1e496194abadb41ac3756f5793a9c5a8bb3e86005546040516106b891815260200190565b5f81604051602001610faa919061217c565b60408051601f1981840301815260608301825261ffff881683526001600160a01b037f000000000000000000000000000000000000000000000000000000000000000081166020850152838301829052915163e4948f4360e01b81529093505f917f0000000000000000000000000000000000000000000000000000000000000000169063e4948f439061104a908c908c9087908c908c90600401612461565b602060405180830381865afa158015611065573d5f803e3d5ffd5b505050506040513d601f19601f820116820180604052508101906110899190612502565b9050806110ec5760405162461bcd60e51b815260206004820152602b60248201527f4661696c656420746f20636865636b20757067726164652070726f706f73616c60448201526a1034b734ba34b0ba34b7b760a91b6064820152608401610609565b6002546001600160a01b03166111086040860160208701611f5f565b6001600160a01b03160361117a5760405162461bcd60e51b815260206004820152603360248201527f456d657267656e6379205570677261646520426f6172642063616e2774206578604482015272656375746520757375616c207570677261646560681b6064820152608401610609565b825160208401205f61118b82611766565b90505f8160068111156111a0576111a061203b565b146111f95760405162461bcd60e51b815260206004820152602360248201527f557067726164652077697468207468697320696420616c72656164792065786960448201526273747360e81b6064820152608401610609565b5f8281526003602052604090819020805465ffffffffffff19164265ffffffffffff161790555182907f71a79729ed8b7db17b27c5dfe0ae24cf41d52b08c8dfc82592fc7db23010c8799061124f90899061217c565b60405180910390a25050505050505050505050565b5f81604051602001611276919061217c565b6040516020818303038152906040528051906020012090505f61129882611766565b905060048160068111156112ae576112ae61203b565b146112fb5760405162461bcd60e51b815260206004820152601860248201527f55706772616465206973206e6f742079657420726561647900000000000000006044820152606401610609565b5f61130c6040850160208601611f5f565b6001600160a01b0316148061133857503361132d6040850160208601611f5f565b6001600160a01b0316145b6113545760405162461bcd60e51b8152600401610609906122d7565b5f828152600360205260409020805460ff60701b1916600160701b17905561137f6109fe848061232a565b60405182907ff6224a998aea3de231cf75375faf8c3711379d54bb84c92ef9d9779dabd383a9905f90a2505050565b6001546001600160a01b031633146113d85760405162461bcd60e51b8152600401610609906123e2565b5f81815260036020526040902054600160681b900460ff161561144b5760405162461bcd60e51b815260206004820152602560248201527f4c6567616c207665746f20706572696f6420697320616c726561647920657874604482015264195b99195960da1b6064820152608401610609565b5f61145582611766565b9050600181600681111561146b5761146b61203b565b146114d55760405162461bcd60e51b815260206004820152603460248201527f5570677261646520776974682074686973206964206973206e6f7420696e20746044820152731a19481b1959d85b081d995d1bc81c195c9a5bd960621b6064820152608401610609565b5f82815260036020526040808220805460ff60681b1916600160681b1790555183917f6679375a2761fa72f4163ccf9a92a514bfd3adff8eb1f2f17256f25834dc46ca91a25050565b6005541561153e5760405162461bcd60e51b815260040161060990612139565b611546611afb565b6040517fea592eda90ea1daf1d7577bddc51f4f8425ec0332f0dd8b58aa08f8a2d1da621905f90a1565b6005544211156115925760405162461bcd60e51b81526004016106099061207d565b61159a6118f8565b6040517fbe5088092f32032505342f55f3393029ab55bd4dfcc2edad138d715f485ace6e905f90a1565b3330146115e35760405162461bcd60e51b815260040161060990612377565b5f80546040516001600160a01b03808516939216917fe55ac8ae7914efca1278b8ed4ae21728d06ad9f6e7637bb2c905aacf2a6f595191a35f80546001600160a01b0319166001600160a01b0392909216919091179055565b5f546001600160a01b031633146116655760405162461bcd60e51b8152600401610609906120be565b5f61166f82611766565b905060028160068111156116855761168561203b565b1461170b5760405162461bcd60e51b815260206004820152604a60248201527f5570677261646520776974682074686973206964206973206e6f74207761697460448201527f696e6720666f722074686520617070726f76616c2066726f6d205365637572696064820152691d1e4810dbdd5b98da5b60b21b608482015260a401610609565b5f8281526003602052604080822080546bffffffffffff0000000000001916600160301b4265ffffffffffff16021790555183917f4ea0d7cd48461eaf68f428942cdfb19039bd43dc723fa8875c65bec57d911ac491a25050565b5f818152600360209081526040808320815160a081018352905465ffffffffffff8082168352600160301b8204169382019390935260ff600160601b84048116151592820192909252600160681b8304821615156060820152600160701b9092041615801560808301526117dd5750600692915050565b805165ffffffffffff165f036117f557505f92915050565b5f8160600151611805575f61180a565b62093a805b825190915061182290829065ffffffffffff16612114565b421015611833575060019392505050565b602082015165ffffffffffff161561187e575f62015180836020015165ffffffffffff166118619190612114565b905080421015611872576003611875565b60045b95945050505050565b5f62278d0082845f015165ffffffffffff1661189a9190612114565b6118a49190612114565b90508042106118ed5782604001516118c157506005949350505050565b5f6118cf6201518083612114565b9050804210156118e05760036118e3565b60045b9695505050505050565b506002949350505050565b5f7f00000000000000000000000000000000000000000000000000000000000000006001600160a01b031663a75b496d6040518163ffffffff1660e01b81526004015f60405180830381865afa158015611954573d5f803e3d5ffd5b505050506040513d5f823e601f3d908101601f1916820160405261197b9190810190612535565b80519091505f5b81811015611a22577f00000000000000000000000000000000000000000000000000000000000000006001600160a01b031663accdd16c8483815181106119cb576119cb6125ee565b60200260200101516040518263ffffffff1660e01b81526004016119f191815260200190565b5f604051808303815f87803b158015611a08575f80fd5b505af1925050508015611a19575060015b50600101611982565b507f00000000000000000000000000000000000000000000000000000000000000006001600160a01b0316638456cb596040518163ffffffff1660e01b81526004015f604051808303815f87803b158015611a7b575f80fd5b505af1925050508015611a8c575060015b507f00000000000000000000000000000000000000000000000000000000000000006001600160a01b0316638456cb596040518163ffffffff1660e01b81526004015f604051808303815f87803b158015611ae5575f80fd5b505af1925050508015611af6575060015b505050565b5f7f00000000000000000000000000000000000000000000000000000000000000006001600160a01b031663a75b496d6040518163ffffffff1660e01b81526004015f60405180830381865afa158015611b57573d5f803e3d5ffd5b505050506040513d5f823e601f3d908101601f19168201604052611b7e9190810190612535565b80519091505f5b81811015611c25577f00000000000000000000000000000000000000000000000000000000000000006001600160a01b03166351d218f7848381518110611bce57611bce6125ee565b60200260200101516040518263ffffffff1660e01b8152600401611bf491815260200190565b5f604051808303815f87803b158015611c0b575f80fd5b505af1925050508015611c1c575060015b50600101611b85565b507f00000000000000000000000000000000000000000000000000000000000000006001600160a01b0316633f4ba83a6040518163ffffffff1660e01b81526004015f604051808303815f87803b158015611c7e575f80fd5b505af1925050508015611c8f575060015b507f00000000000000000000000000000000000000000000000000000000000000006001600160a01b0316633f4ba83a6040518163ffffffff1660e01b81526004015f604051808303815f87803b158015611ae5575f80fd5b5f5b81811015611af6575f838383818110611d0557611d056125ee565b9050602002810190611d179190612602565b611d25906040810190612620565b90501115611ddd575f838383818110611d4057611d406125ee565b9050602002810190611d529190612602565b611d60906020810190611f5f565b6001600160a01b03163b11611ddd5760405162461bcd60e51b815260206004820152603c60248201527f546172676574206d757374206265206120736d61727420636f6e74726163742060448201527f6966207468652063616c6c64617461206973206e6f7420656d707479000000006064820152608401610609565b5f80848484818110611df157611df16125ee565b9050602002810190611e039190612602565b611e11906020810190611f5f565b6001600160a01b0316858585818110611e2c57611e2c6125ee565b9050602002810190611e3e9190612602565b60200135868686818110611e5457611e546125ee565b9050602002810190611e669190612602565b611e74906040810190612620565b604051611e82929190612663565b5f6040518083038185875af1925050503d805f8114611ebc576040519150601f19603f3d011682016040523d82523d5f602084013e611ec1565b606091505b509150915081611ed357805160208201fd5b5050600101611cea565b5f60208284031215611eed575f80fd5b5035919050565b5f60608284031215611f04575f80fd5b50919050565b5f60208284031215611f1a575f80fd5b813567ffffffffffffffff811115611f30575f80fd5b611f3c84828501611ef4565b949350505050565b80356001600160a01b0381168114611f5a575f80fd5b919050565b5f60208284031215611f6f575f80fd5b611f7882611f44565b9392505050565b5f805f805f8060a08789031215611f94575f80fd5b8635955060208701359450604087013561ffff81168114611fb3575f80fd5b9350606087013567ffffffffffffffff80821115611fcf575f80fd5b818901915089601f830112611fe2575f80fd5b813581811115611ff0575f80fd5b8a60208260051b8501011115612004575f80fd5b602083019550809450506080890135915080821115612021575f80fd5b5061202e89828a01611ef4565b9150509295509295509295565b634e487b7160e01b5f52602160045260245ffd5b60208101600583106120635761206361203b565b91905290565b60208101600783106120635761206361203b565b60208082526021908201527f50726f746f636f6c2073686f756c6420626520616c72656164792066726f7a656040820152603760f91b606082015260800190565b60208082526036908201527f4f6e6c7920536563757269747920436f756e63696c20697320616c6c6f776564604082015275103a379031b0b636103a3434b990333ab731ba34b7b760511b606082015260800190565b8082018082111561213357634e487b7160e01b5f52601160045260245ffd5b92915050565b60208082526023908201527f50726f746f636f6c2073686f756c6420626520616c726561647920756e66726f6040820152623d32b760e91b606082015260800190565b5f602080835260808084018535601e1987360301811261219a575f80fd5b8601803584820167ffffffffffffffff808311156121b6575f80fd5b8260051b8036038313156121c8575f80fd5b60608a890181905295849052890160a0908101955f918b0136879003607e19015b8684101561229d578c8903609f190182528535818112612207575f80fd5b88016001600160a01b0361221c8d8301611f44565b168a526040808201358d8c015284820135603e1983360301811261223e575f80fd5b90910181810191908d013587811115612255575f80fd5b803603831315612263575f80fd5b85828d015280868d015280838e8e01375f8c82018e0152601f01601f1916909a018b01995050948a019460019390930192908a01906121e9565b50505050505050506122b0838701611f44565b6001600160a01b038116604087015292506040860135606086015280935050505092915050565b60208082526033908201527f6d73672e73656e646572206973206e6f7420617574686f72697a656420746f20604082015272706572666f726d20746865207570677261646560681b606082015260800190565b5f808335601e1984360301811261233f575f80fd5b83018035915067ffffffffffffffff821115612359575f80fd5b6020019150600581901b3603821315612370575f80fd5b9250929050565b60208082526045908201527f4f6e6c7920757067726164652068616e646c657220636f6e747261637420697460408201527f73656c6620697320616c6c6f77656420746f2063616c6c20746869732066756e60608201526431ba34b7b760d91b608082015260a00190565b6020808252602f908201527f4f6e6c7920677561726469616e7320697320616c6c6f77656420746f2063616c60408201526e36103a3434b990333ab731ba34b7b760891b606082015260800190565b8183525f6001600160fb1b03831115612448575f80fd5b8260051b80836020870137939093016020019392505050565b8581525f60208660208401526080604084015261ffff865116608084015260018060a01b0360208701511660a08401526040860151606060c085015280518060e08601525f5b818110156124c457828101840151868201610100015283016124a7565b5061010092505f838287010152601f19601f8201168501915050818482030160608501526124f58282018688612431565b9998505050505050505050565b5f60208284031215612512575f80fd5b81518015158114611f78575f80fd5b634e487b7160e01b5f52604160045260245ffd5b5f6020808385031215612546575f80fd5b825167ffffffffffffffff8082111561255d575f80fd5b818501915085601f830112612570575f80fd5b81518181111561258257612582612521565b8060051b604051601f19603f830116810181811085821117156125a7576125a7612521565b6040529182528482019250838101850191888311156125c4575f80fd5b938501935b828510156125e2578451845293850193928501926125c9565b98975050505050505050565b634e487b7160e01b5f52603260045260245ffd5b5f8235605e19833603018112612616575f80fd5b9190910192915050565b5f808335601e19843603018112612635575f80fd5b83018035915067ffffffffffffffff82111561264f575f80fd5b602001915036819003821315612370575f80fd5b818382375f910190815291905056fea264697066735822122042133b8dc92100ca91e5799b2dcc3a252005a7e5c3b1e159bdb5c935488bb53364736f6c63430008180033","linkReferences":{}},"methodIdentifiers":{"BRIDGE_HUB()":"5d4edca7","L2_PROTOCOL_GOVERNOR()":"4717bd36","SHARED_BRIDGE()":"546b6d2a","STATE_TRANSITION_MANAGER()":"3083f0c8","ZKSYNC_ERA()":"f12913d8","approveUpgradeGuardians(bytes32)":"74f5d9d2","approveUpgradeSecurityCouncil(bytes32)":"ea3e739b","emergencyUpgradeBoard()":"08ee01eb","execute(((address,uint256,bytes)[],address,bytes32))":"a1dcb9b8","executeEmergencyUpgrade(((address,uint256,bytes)[],address,bytes32))":"4523da36","extendLegalVeto(bytes32)":"b429f41c","guardians()":"5a81d4ba","hardFreeze()":"84a20db8","lastFreezeStatusInUpgradeCycle()":"d3706132","protocolFrozenUntil()":"0ed505a2","reinforceFreeze()":"d6f7e8da","reinforceFreezeOneChain(uint256)":"0855b2e1","reinforceUnfreeze()":"c54dd628","reinforceUnfreezeOneChain(uint256)":"407626b5","securityCouncil()":"27eb6c0f","softFreeze()":"314e6ebe","startUpgrade(uint256,uint256,uint16,bytes32[],((address,uint256,bytes)[],address,bytes32))":"9c5392da","unfreeze()":"6a28f000","updateEmergencyUpgradeBoard(address)":"7aedf337","updateGuardians(address)":"691616c5","updateSecurityCouncil(address)":"dbfe3e96","upgradeState(bytes32)":"ec1507cb","upgradeStatus(bytes32)":"b9d1f21a"},"id":52}