{"abi":[{"type":"receive","stateMutability":"payable"},{"type":"function","name":"callSelf","inputs":[],"outputs":[],"stateMutability":"payable"},{"type":"function","name":"receiveMessage","inputs":[{"name":"receiveId","type":"bytes32","internalType":"bytes32"},{"name":"sender","type":"bytes","internalType":"bytes"},{"name":"payload","type":"bytes","internalType":"bytes"}],"outputs":[{"name":"","type":"bytes4","internalType":"bytes4"}],"stateMutability":"payable"},{"type":"function","name":"selector","inputs":[],"outputs":[{"name":"","type":"bytes4","internalType":"bytes4"}],"stateMutability":"view"}],"bytecode":{"object":"0x6080604052348015600e575f5ffd5b5061037d8061001c5f395ff3fe608060405260043610610036575f3560e01c80630adfba60146100415780632432ef261461004b578063ea3d508a146100b8575f5ffd5b3661003d57005b5f5ffd5b6100496100d0565b005b610083610059366004610208565b7f2432ef260000000000000000000000000000000000000000000000000000000095945050505050565b6040517fffffffff00000000000000000000000000000000000000000000000000000000909116815260200160405180910390f35b3480156100c3575f5ffd5b505f546100839060e01b81565b60408051808201825260028082527f307800000000000000000000000000000000000000000000000000000000000060208084018290528451808601865292835282015291517f2432ef260000000000000000000000000000000000000000000000000000000081523092632432ef2692610150925f92906004016102cd565b6020604051808303815f875af115801561016c573d5f5f3e3d5ffd5b505050506040513d601f19601f820116820180604052508101906101909190610301565b5f80547fffffffffffffffffffffffffffffffffffffffffffffffffffffffff000000001660e09290921c919091179055565b5f5f83601f8401126101d3575f5ffd5b50813567ffffffffffffffff8111156101ea575f5ffd5b602083019150836020828501011115610201575f5ffd5b9250929050565b5f5f5f5f5f6060868803121561021c575f5ffd5b85359450602086013567ffffffffffffffff811115610239575f5ffd5b610245888289016101c3565b909550935050604086013567ffffffffffffffff811115610264575f5ffd5b610270888289016101c3565b969995985093965092949392505050565b5f81518084528060208401602086015e5f6020828601015260207fffffffffffffffffffffffffffffffffffffffffffffffffffffffffffffffe0601f83011685010191505092915050565b838152606060208201525f6102e56060830185610281565b82810360408401526102f78185610281565b9695505050505050565b5f60208284031215610311575f5ffd5b81517fffffffff0000000000000000000000000000000000000000000000000000000081168114610340575f5ffd5b939250505056fea26469706673582212203dafed18a16123970cc6400b6d113b872e9a1db5d157440e702b5bc387ebb3bd64736f6c634300081c0033","linkReferences":{}},"methodIdentifiers":{"callSelf()":"0adfba60","receiveMessage(bytes32,bytes,bytes)":"2432ef26","selector()":"ea3d508a"},"id":149}