{"abi":[{"type":"constructor","inputs":[{"name":"_owner","type":"address","internalType":"address"},{"name":"_maxNumberOfZKChains","type":"uint256","internalType":"uint256"}],"stateMutability":"nonpayable"},{"type":"function","name":"L1_CHAIN_ID","inputs":[],"outputs":[{"name":"","type":"uint256","internalType":"uint256"}],"stateMutability":"view"},{"type":"function","name":"MAX_NUMBER_OF_ZK_CHAINS","inputs":[],"outputs":[{"name":"","type":"uint256","internalType":"uint256"}],"stateMutability":"view"},{"type":"function","name":"__DEPRECATED_migrationPaused","inputs":[],"outputs":[{"name":"","type":"bool","internalType":"bool"}],"stateMutability":"view"},{"type":"function","name":"acceptAdmin","inputs":[],"outputs":[],"stateMutability":"nonpayable"},{"type":"function","name":"acceptOwnership","inputs":[],"outputs":[],"stateMutability":"nonpayable"},{"type":"function","name":"addChainTypeManager","inputs":[{"name":"_chainTypeManager","type":"address","internalType":"address"}],"outputs":[],"stateMutability":"nonpayable"},{"type":"function","name":"addTokenAssetId","inputs":[{"name":"_baseTokenAssetId","type":"bytes32","internalType":"bytes32"}],"outputs":[],"stateMutability":"nonpayable"},{"type":"function","name":"admin","inputs":[],"outputs":[{"name":"","type":"address","internalType":"address"}],"stateMutability":"view"},{"type":"function","name":"assetIdIsRegistered","inputs":[{"name":"baseTokenAssetId","type":"bytes32","internalType":"bytes32"}],"outputs":[{"name":"","type":"bool","internalType":"bool"}],"stateMutability":"view"},{"type":"function","name":"assetRouter","inputs":[],"outputs":[{"name":"","type":"address","internalType":"contract IAssetRouterBase"}],"stateMutability":"view"},{"type":"function","name":"baseToken","inputs":[{"name":"_chainId","type":"uint256","internalType":"uint256"}],"outputs":[{"name":"","type":"address","internalType":"address"}],"stateMutability":"view"},{"type":"function","name":"baseTokenAssetId","inputs":[{"name":"chainId","type":"uint256","internalType":"uint256"}],"outputs":[{"name":"","type":"bytes32","internalType":"bytes32"}],"stateMutability":"view"},{"type":"function","name":"chainAssetHandler","inputs":[],"outputs":[{"name":"","type":"address","internalType":"address"}],"stateMutability":"view"},{"type":"function","name":"chainRegistrationSender","inputs":[],"outputs":[{"name":"","type":"address","internalType":"address"}],"stateMutability":"view"},{"type":"function","name":"chainTypeManager","inputs":[{"name":"chainId","type":"uint256","internalType":"uint256"}],"outputs":[{"name":"","type":"address","internalType":"address"}],"stateMutability":"view"},{"type":"function","name":"chainTypeManagerIsRegistered","inputs":[{"name":"chainTypeManager","type":"address","internalType":"address"}],"outputs":[{"name":"","type":"bool","internalType":"bool"}],"stateMutability":"view"},{"type":"function","name":"createNewChain","inputs":[{"name":"_chainId","type":"uint256","internalType":"uint256"},{"name":"_chainTypeManager","type":"address","internalType":"address"},{"name":"_baseTokenAssetId","type":"bytes32","internalType":"bytes32"},{"name":"_salt","type":"uint256","internalType":"uint256"},{"name":"_admin","type":"address","internalType":"address"},{"name":"_initData","type":"bytes","internalType":"bytes"},{"name":"_factoryDeps","type":"bytes[]","internalType":"bytes[]"}],"outputs":[{"name":"","type":"uint256","internalType":"uint256"}],"stateMutability":"nonpayable"},{"type":"function","name":"ctmAssetIdFromAddress","inputs":[{"name":"ctmAddress","type":"address","internalType":"address"}],"outputs":[{"name":"ctmAssetId","type":"bytes32","internalType":"bytes32"}],"stateMutability":"view"},{"type":"function","name":"ctmAssetIdFromChainId","inputs":[{"name":"_chainId","type":"uint256","internalType":"uint256"}],"outputs":[{"name":"","type":"bytes32","internalType":"bytes32"}],"stateMutability":"view"},{"type":"function","name":"ctmAssetIdToAddress","inputs":[{"name":"ctmAssetId","type":"bytes32","internalType":"bytes32"}],"outputs":[{"name":"ctmAddress","type":"address","internalType":"address"}],"stateMutability":"view"},{"type":"function","name":"forwardedBridgeBurnSetSettlementLayer","inputs":[{"name":"_chainId","type":"uint256","internalType":"uint256"},{"name":"_newSettlementLayerChainId","type":"uint256","internalType":"uint256"}],"outputs":[{"name":"zkChain","type":"address","internalType":"address"},{"name":"ctm","type":"address","internalType":"address"}],"stateMutability":"nonpayable"},{"type":"function","name":"forwardedBridgeConfirmTransferResult","inputs":[{"name":"_chainId","type":"uint256","internalType":"uint256"},{"name":"_txStatus","type":"uint8","internalType":"enum TxStatus"}],"outputs":[{"name":"zkChain","type":"address","internalType":"address"},{"name":"ctm","type":"address","internalType":"address"}],"stateMutability":"nonpayable"},{"type":"function","name":"forwardedBridgeMint","inputs":[{"name":"_assetId","type":"bytes32","internalType":"bytes32"},{"name":"_chainId","type":"uint256","internalType":"uint256"},{"name":"_baseTokenAssetId","type":"bytes32","internalType":"bytes32"}],"outputs":[{"name":"zkChain","type":"address","internalType":"address"},{"name":"ctm","type":"address","internalType":"address"}],"stateMutability":"nonpayable"},{"type":"function","name":"getAllZKChainChainIDs","inputs":[],"outputs":[{"name":"","type":"uint256[]","internalType":"uint256[]"}],"stateMutability":"view"},{"type":"function","name":"getAllZKChains","inputs":[],"outputs":[{"name":"chainAddresses","type":"address[]","internalType":"address[]"}],"stateMutability":"view"},{"type":"function","name":"getHyperchain","inputs":[{"name":"_chainId","type":"uint256","internalType":"uint256"}],"outputs":[{"name":"","type":"address","internalType":"address"}],"stateMutability":"view"},{"type":"function","name":"getZKChain","inputs":[{"name":"_chainId","type":"uint256","internalType":"uint256"}],"outputs":[{"name":"chainAddress","type":"address","internalType":"address"}],"stateMutability":"view"},{"type":"function","name":"initialize","inputs":[{"name":"_owner","type":"address","internalType":"address"}],"outputs":[],"stateMutability":"nonpayable"},{"type":"function","name":"initializeV2","inputs":[],"outputs":[],"stateMutability":"nonpayable"},{"type":"function","name":"l1CtmDeployer","inputs":[],"outputs":[{"name":"","type":"address","internalType":"contract ICTMDeploymentTracker"}],"stateMutability":"view"},{"type":"function","name":"l2TransactionBaseCost","inputs":[{"name":"_chainId","type":"uint256","internalType":"uint256"},{"name":"_gasPrice","type":"uint256","internalType":"uint256"},{"name":"_l2GasLimit","type":"uint256","internalType":"uint256"},{"name":"_l2GasPerPubdataByteLimit","type":"uint256","internalType":"uint256"}],"outputs":[{"name":"","type":"uint256","internalType":"uint256"}],"stateMutability":"view"},{"type":"function","name":"messageRoot","inputs":[],"outputs":[{"name":"","type":"address","internalType":"contract IMessageRoot"}],"stateMutability":"view"},{"type":"function","name":"owner","inputs":[],"outputs":[{"name":"","type":"address","internalType":"address"}],"stateMutability":"view"},{"type":"function","name":"pause","inputs":[],"outputs":[],"stateMutability":"nonpayable"},{"type":"function","name":"paused","inputs":[],"outputs":[{"name":"","type":"bool","internalType":"bool"}],"stateMutability":"view"},{"type":"function","name":"pendingOwner","inputs":[],"outputs":[{"name":"","type":"address","internalType":"address"}],"stateMutability":"view"},{"type":"function","name":"proveL1ToL2TransactionStatus","inputs":[{"name":"_chainId","type":"uint256","internalType":"uint256"},{"name":"_l2TxHash","type":"bytes32","internalType":"bytes32"},{"name":"_l2BatchNumber","type":"uint256","internalType":"uint256"},{"name":"_l2MessageIndex","type":"uint256","internalType":"uint256"},{"name":"_l2TxNumberInBatch","type":"uint16","internalType":"uint16"},{"name":"_merkleProof","type":"bytes32[]","internalType":"bytes32[]"},{"name":"_status","type":"uint8","internalType":"enum TxStatus"}],"outputs":[{"name":"","type":"bool","internalType":"bool"}],"stateMutability":"view"},{"type":"function","name":"proveL2LogInclusion","inputs":[{"name":"_chainId","type":"uint256","internalType":"uint256"},{"name":"_batchNumber","type":"uint256","internalType":"uint256"},{"name":"_index","type":"uint256","internalType":"uint256"},{"name":"_log","type":"tuple","internalType":"struct L2Log","components":[{"name":"l2ShardId","type":"uint8","internalType":"uint8"},{"name":"isService","type":"bool","internalType":"bool"},{"name":"txNumberInBatch","type":"uint16","internalType":"uint16"},{"name":"sender","type":"address","internalType":"address"},{"name":"key","type":"bytes32","internalType":"bytes32"},{"name":"value","type":"bytes32","internalType":"bytes32"}]},{"name":"_proof","type":"bytes32[]","internalType":"bytes32[]"}],"outputs":[{"name":"","type":"bool","internalType":"bool"}],"stateMutability":"view"},{"type":"function","name":"proveL2MessageInclusion","inputs":[{"name":"_chainId","type":"uint256","internalType":"uint256"},{"name":"_batchNumber","type":"uint256","internalType":"uint256"},{"name":"_index","type":"uint256","internalType":"uint256"},{"name":"_message","type":"tuple","internalType":"struct L2Message","components":[{"name":"txNumberInBatch","type":"uint16","internalType":"uint16"},{"name":"sender","type":"address","internalType":"address"},{"name":"data","type":"bytes","internalType":"bytes"}]},{"name":"_proof","type":"bytes32[]","internalType":"bytes32[]"}],"outputs":[{"name":"","type":"bool","internalType":"bool"}],"stateMutability":"view"},{"type":"function","name":"registerAlreadyDeployedZKChain","inputs":[{"name":"_chainId","type":"uint256","internalType":"uint256"},{"name":"_zkChain","type":"address","internalType":"address"}],"outputs":[],"stateMutability":"nonpayable"},{"type":"function","name":"registerNewZKChain","inputs":[{"name":"_chainId","type":"uint256","internalType":"uint256"},{"name":"_zkChain","type":"address","internalType":"address"},{"name":"_checkMaxNumberOfZKChains","type":"bool","internalType":"bool"}],"outputs":[],"stateMutability":"nonpayable"},{"type":"function","name":"registerSettlementLayer","inputs":[{"name":"_newSettlementLayerChainId","type":"uint256","internalType":"uint256"},{"name":"_isWhitelisted","type":"bool","internalType":"bool"}],"outputs":[],"stateMutability":"nonpayable"},{"type":"function","name":"removeChainTypeManager","inputs":[{"name":"_chainTypeManager","type":"address","internalType":"address"}],"outputs":[],"stateMutability":"nonpayable"},{"type":"function","name":"renounceOwnership","inputs":[],"outputs":[],"stateMutability":"nonpayable"},{"type":"function","name":"requestL2TransactionDirect","inputs":[{"name":"_request","type":"tuple","internalType":"struct L2TransactionRequestDirect","components":[{"name":"chainId","type":"uint256","internalType":"uint256"},{"name":"mintValue","type":"uint256","internalType":"uint256"},{"name":"l2Contract","type":"address","internalType":"address"},{"name":"l2Value","type":"uint256","internalType":"uint256"},{"name":"l2Calldata","type":"bytes","internalType":"bytes"},{"name":"l2GasLimit","type":"uint256","internalType":"uint256"},{"name":"l2GasPerPubdataByteLimit","type":"uint256","internalType":"uint256"},{"name":"factoryDeps","type":"bytes[]","internalType":"bytes[]"},{"name":"refundRecipient","type":"address","internalType":"address"}]}],"outputs":[{"name":"canonicalTxHash","type":"bytes32","internalType":"bytes32"}],"stateMutability":"payable"},{"type":"function","name":"requestL2TransactionTwoBridges","inputs":[{"name":"_request","type":"tuple","internalType":"struct L2TransactionRequestTwoBridgesOuter","components":[{"name":"chainId","type":"uint256","internalType":"uint256"},{"name":"mintValue","type":"uint256","internalType":"uint256"},{"name":"l2Value","type":"uint256","internalType":"uint256"},{"name":"l2GasLimit","type":"uint256","internalType":"uint256"},{"name":"l2GasPerPubdataByteLimit","type":"uint256","internalType":"uint256"},{"name":"refundRecipient","type":"address","internalType":"address"},{"name":"secondBridgeAddress","type":"address","internalType":"address"},{"name":"secondBridgeValue","type":"uint256","internalType":"uint256"},{"name":"secondBridgeCalldata","type":"bytes","internalType":"bytes"}]}],"outputs":[{"name":"canonicalTxHash","type":"bytes32","internalType":"bytes32"}],"stateMutability":"payable"},{"type":"function","name":"setAddresses","inputs":[{"name":"_assetRouter","type":"address","internalType":"address"},{"name":"_l1CtmDeployer","type":"address","internalType":"contract ICTMDeploymentTracker"},{"name":"_messageRoot","type":"address","internalType":"contract IMessageRoot"},{"name":"_chainAssetHandler","type":"address","internalType":"address"},{"name":"_chainRegistrationSender","type":"address","internalType":"address"}],"outputs":[],"stateMutability":"nonpayable"},{"type":"function","name":"setAddressesV31","inputs":[{"name":"_chainRegistrationSender","type":"address","internalType":"address"}],"outputs":[],"stateMutability":"nonpayable"},{"type":"function","name":"setCTMAssetAddress","inputs":[{"name":"_additionalData","type":"bytes32","internalType":"bytes32"},{"name":"_assetAddress","type":"address","internalType":"address"}],"outputs":[],"stateMutability":"nonpayable"},{"type":"function","name":"setPendingAdmin","inputs":[{"name":"_newPendingAdmin","type":"address","internalType":"address"}],"outputs":[],"stateMutability":"nonpayable"},{"type":"function","name":"settlementLayer","inputs":[{"name":"chainId","type":"uint256","internalType":"uint256"}],"outputs":[{"name":"activeSettlementLayerChainId","type":"uint256","internalType":"uint256"}],"stateMutability":"view"},{"type":"function","name":"sharedBridge","inputs":[],"outputs":[{"name":"","type":"address","internalType":"address"}],"stateMutability":"view"},{"type":"function","name":"transferOwnership","inputs":[{"name":"newOwner","type":"address","internalType":"address"}],"outputs":[],"stateMutability":"nonpayable"},{"type":"function","name":"unpause","inputs":[],"outputs":[],"stateMutability":"nonpayable"},{"type":"function","name":"whitelistedSettlementLayers","inputs":[{"name":"chainId","type":"uint256","internalType":"uint256"}],"outputs":[{"name":"isWhitelistedSettlementLayer","type":"bool","internalType":"bool"}],"stateMutability":"view"},{"type":"event","name":"AssetRegistered","inputs":[{"name":"assetInfo","type":"bytes32","indexed":true,"internalType":"bytes32"},{"name":"_assetAddress","type":"address","indexed":true,"internalType":"address"},{"name":"additionalData","type":"bytes32","indexed":true,"internalType":"bytes32"},{"name":"sender","type":"address","indexed":false,"internalType":"address"}],"anonymous":false},{"type":"event","name":"BaseTokenAssetIdRegistered","inputs":[{"name":"assetId","type":"bytes32","indexed":true,"internalType":"bytes32"}],"anonymous":false},{"type":"event","name":"ChainTypeManagerAdded","inputs":[{"name":"chainTypeManager","type":"address","indexed":true,"internalType":"address"}],"anonymous":false},{"type":"event","name":"ChainTypeManagerRemoved","inputs":[{"name":"chainTypeManager","type":"address","indexed":true,"internalType":"address"}],"anonymous":false},{"type":"event","name":"Initialized","inputs":[{"name":"version","type":"uint8","indexed":false,"internalType":"uint8"}],"anonymous":false},{"type":"event","name":"NewAdmin","inputs":[{"name":"oldAdmin","type":"address","indexed":true,"internalType":"address"},{"name":"newAdmin","type":"address","indexed":true,"internalType":"address"}],"anonymous":false},{"type":"event","name":"NewChain","inputs":[{"name":"chainId","type":"uint256","indexed":true,"internalType":"uint256"},{"name":"chainTypeManager","type":"address","indexed":false,"internalType":"address"},{"name":"chainGovernance","type":"address","indexed":true,"internalType":"address"}],"anonymous":false},{"type":"event","name":"NewPendingAdmin","inputs":[{"name":"oldPendingAdmin","type":"address","indexed":true,"internalType":"address"},{"name":"newPendingAdmin","type":"address","indexed":true,"internalType":"address"}],"anonymous":false},{"type":"event","name":"OwnershipTransferStarted","inputs":[{"name":"previousOwner","type":"address","indexed":true,"internalType":"address"},{"name":"newOwner","type":"address","indexed":true,"internalType":"address"}],"anonymous":false},{"type":"event","name":"OwnershipTransferred","inputs":[{"name":"previousOwner","type":"address","indexed":true,"internalType":"address"},{"name":"newOwner","type":"address","indexed":true,"internalType":"address"}],"anonymous":false},{"type":"event","name":"Paused","inputs":[{"name":"account","type":"address","indexed":false,"internalType":"address"}],"anonymous":false},{"type":"event","name":"SettlementLayerRegistered","inputs":[{"name":"chainId","type":"uint256","indexed":true,"internalType":"uint256"},{"name":"isWhitelisted","type":"bool","indexed":true,"internalType":"bool"}],"anonymous":false},{"type":"event","name":"Unpaused","inputs":[{"name":"account","type":"address","indexed":false,"internalType":"address"}],"anonymous":false},{"type":"error","name":"AlreadyCurrentSL","inputs":[{"name":"blockChainId","type":"uint256","internalType":"uint256"}]},{"type":"error","name":"AssetHandlerNotRegistered","inputs":[{"name":"assetId","type":"bytes32","internalType":"bytes32"}]},{"type":"error","name":"AssetIdAlreadyRegistered","inputs":[]},{"type":"error","name":"AssetIdNotSupported","inputs":[{"name":"assetId","type":"bytes32","internalType":"bytes32"}]},{"type":"error","name":"BridgeHubAlreadyRegistered","inputs":[]},{"type":"error","name":"CTMAlreadyRegistered","inputs":[]},{"type":"error","name":"CTMNotRegistered","inputs":[]},{"type":"error","name":"ChainIdAlreadyExists","inputs":[]},{"type":"error","name":"ChainIdCantBeCurrentChain","inputs":[]},{"type":"error","name":"ChainIdMismatch","inputs":[]},{"type":"error","name":"ChainIdNotRegistered","inputs":[{"name":"chainId","type":"uint256","internalType":"uint256"}]},{"type":"error","name":"ChainIdTooBig","inputs":[]},{"type":"error","name":"EmptyAssetId","inputs":[]},{"type":"error","name":"IncorrectBridgeHubAddress","inputs":[{"name":"bridgehub","type":"address","internalType":"address"}]},{"type":"error","name":"MsgValueMismatch","inputs":[{"name":"expectedMsgValue","type":"uint256","internalType":"uint256"},{"name":"providedMsgValue","type":"uint256","internalType":"uint256"}]},{"type":"error","name":"NoCTMForAssetId","inputs":[{"name":"assetId","type":"bytes32","internalType":"bytes32"}]},{"type":"error","name":"NotChainAssetHandler","inputs":[{"name":"sender","type":"address","internalType":"address"},{"name":"chainAssetHandler","type":"address","internalType":"address"}]},{"type":"error","name":"NotCurrentSettlementLayer","inputs":[]},{"type":"error","name":"NotInitializedReentrancyGuard","inputs":[]},{"type":"error","name":"Reentrancy","inputs":[]},{"type":"error","name":"SLNotWhitelisted","inputs":[]},{"type":"error","name":"SecondBridgeAddressTooLow","inputs":[{"name":"secondBridgeAddress","type":"address","internalType":"address"},{"name":"minSecondBridgeAddress","type":"address","internalType":"address"}]},{"type":"error","name":"SettlementLayersMustSettleOnL1","inputs":[]},{"type":"error","name":"SharedBridgeNotSet","inputs":[]},{"type":"error","name":"SlotOccupied","inputs":[]},{"type":"error","name":"Unauthorized","inputs":[{"name":"caller","type":"address","internalType":"address"}]},{"type":"error","name":"WrongMagicValue","inputs":[{"name":"expectedMagicValue","type":"uint256","internalType":"uint256"},{"name":"providedMagicValue","type":"uint256","internalType":"uint256"}]},{"type":"error","name":"ZKChainLimitReached","inputs":[]},{"type":"error","name":"ZeroAddress","inputs":[]},{"type":"error","name":"ZeroChainId","inputs":[]}],"bytecode":{"object":"0x60e060405234801561000f575f5ffd5b5060405161538538038061538583398101604081905261002e9161029b565b61003661006d565b4660a0526100426100b7565b60c0819052610052466001610173565b60805261005e826101c7565b6100666101e0565b50506102fd565b7f8e94fed44239eb2314ab7a406345e6c5a8f0ccedf3b600de3d004e672c33abf48054600190915580156100b45760405163df3a8fdd60e01b815260040160405180910390fd5b50565b5f54610100900460ff16156101225760405162461bcd60e51b815260206004820152602760248201527f496e697469616c697a61626c653a20636f6e747261637420697320696e697469604482015266616c697a696e6760c81b606482015260840160405180910390fd5b5f5460ff90811614610171575f805460ff191660ff9081179091556040519081527f7f26b83ff96e1f2b6a682f133852f6798a09c465da95921460cefb38474024989060200160405180910390a15b565b5f826101836201000060046102d2565b6040805160208101939093526001600160a01b0391821690830152831660608201526080016040516020818303038152906040528051906020012090505b92915050565b606580546001600160a01b03191690556100b481610244565b600160da5f6101ee60805190565b81526020019081526020015f205f6101000a81548160ff021916908315150217905550600160d95f61022461029560201b60201c565b815260208101919091526040015f20805460ff1916911515919091179055565b603380546001600160a01b038381166001600160a01b0319831681179093556040519116919082907f8be0079c531659141344cd1fd0a4f28419497f9722a3daafe3b4186f6b6457e0905f90a35050565b60a05190565b5f5f604083850312156102ac575f5ffd5b82516001600160a01b03811681146102c2575f5ffd5b6020939093015192949293505050565b6001600160a01b0381811683821601908111156101c157634e487b7160e01b5f52601160045260245ffd5b60805160a05160c05161502661035f5f395f81816107c401526138a901525f81816104ee0152818161184e0152818161196f015281816120c20152612ca101525f81816113d00152818161206401528181612c430152612daa01526150265ff3fe608060405260043610610350575f3560e01c806379ba5097116101bd578063d4b9f4fa116100f2578063e680c4c111610092578063f113c88b1161006d578063f113c88b14610ab4578063f2fde38b14610ad3578063f851a44014610af2578063ff5a62a114610b1e575f5ffd5b8063e680c4c114610a48578063e6d9923b14610a67578063e9420f8c14610a86575f5ffd5b8063dead6f7f116100cd578063dead6f7f146109a6578063e0ab6368146109c5578063e30c3978146109f3578063e52db4ca14610a1d575f5ffd5b8063d4b9f4fa14610948578063d52471c114610974578063dc8e4b2614610987575f5ffd5b8063a17223b01161015d578063b93c936611610138578063b93c9366146108a3578063bc0aac10146108d1578063c4d66de8146108fd578063cbe836121461091c575f5ffd5b8063a17223b014610846578063b292f5f114610865578063b5662c5d14610884575f5ffd5b80638da5cb5b116101985780638da5cb5b146107895780638f8d37a8146107b357806399c16d1a146107e65780639d5bd3da14610805575f5ffd5b806379ba5097146107485780638456cb591461075c5780638916251f14610770575f5ffd5b806349707f3111610293578063671a71311161023357806370d8af871161020e57806370d8af87146106b957806370fccb52146106ea578063715018a6146107155780637162327414610729575f5ffd5b8063671a71311461064e57806368b8d331146106795780637011be851461069a575f5ffd5b80635c975abb1161026e5780635c975abb146105cc5780635cd8a76b146105ef5780635dd68acd14610603578063669e1e4614610622575f5ffd5b806349707f311461056d5780634dd18bf51461058e57806359ec65a2146105ad575f5ffd5b806324358c61116102fe5780632f90b184116102d95780632f90b184146104dd578063332b96dc14610510578063387207781461052f5780633f4ba83a14610559575f5ffd5b806324358c611461047e57806324fd57fb146104ab5780632dbcf55f146104be575f5ffd5b806317fa37511161032e57806317fa3751146104215780631c50cfea14610440578063224092131461045f575f5ffd5b80630641e4f71461035457806307621f84146103a55780630e18b6811461040b575b5f5ffd5b34801561035f575f5ffd5b5061037361036e366004613fab565b610b3d565b6040805173ffffffffffffffffffffffffffffffffffffffff9384168152929091166020830152015b60405180910390f35b3480156103b0575f5ffd5b506103e66103bf366004613fcb565b60d66020525f908152604090205473ffffffffffffffffffffffffffffffffffffffff1681565b60405173ffffffffffffffffffffffffffffffffffffffff909116815260200161039c565b348015610416575f5ffd5b5061041f610cdf565b005b34801561042c575f5ffd5b5061037361043b366004613fe2565b610e0d565b34801561044b575f5ffd5b5061041f61045a366004613fcb565b610fdd565b34801561046a575f5ffd5b5061037361047936600461401e565b6110fe565b348015610489575f5ffd5b5061049d610498366004613fcb565b6111e1565b60405190815260200161039c565b61049d6104b936600461405f565b611269565b3480156104c9575f5ffd5b5061041f6104d83660046140bd565b61184a565b3480156104e8575f5ffd5b5061049d7f000000000000000000000000000000000000000000000000000000000000000081565b34801561051b575f5ffd5b5061041f61052a3660046140eb565b611a6e565b34801561053a575f5ffd5b5060c95473ffffffffffffffffffffffffffffffffffffffff166103e6565b348015610564575f5ffd5b5061041f611b94565b348015610578575f5ffd5b50610581611ba6565b60405161039c9190614106565b348015610599575f5ffd5b5061041f6105a83660046140eb565b611c7a565b3480156105b8575f5ffd5b506103e66105c7366004613fcb565b611db6565b3480156105d7575f5ffd5b5060975460ff165b604051901515815260200161039c565b3480156105fa575f5ffd5b5061041f611f40565b34801561060e575f5ffd5b5061041f61061d36600461415e565b61215b565b34801561062d575f5ffd5b5060dc546103e69073ffffffffffffffffffffffffffffffffffffffff1681565b348015610659575f5ffd5b5061049d610668366004613fcb565b60d86020525f908152604090205481565b348015610684575f5ffd5b5061068d61229e565b60405161039c91906141cb565b3480156106a5575f5ffd5b5061041f6106b436600461420f565b6122af565b3480156106c4575f5ffd5b5060db546103e690610100900473ffffffffffffffffffffffffffffffffffffffff1681565b3480156106f5575f5ffd5b5061049d6107043660046140eb565b60d76020525f908152604090205481565b348015610720575f5ffd5b5061041f61233b565b348015610734575f5ffd5b5061049d61074336600461424e565b61234c565b348015610753575f5ffd5b5061041f612401565b348015610767575f5ffd5b5061041f6124b3565b34801561077b575f5ffd5b5060db546105df9060ff1681565b348015610794575f5ffd5b5060335473ffffffffffffffffffffffffffffffffffffffff166103e6565b3480156107be575f5ffd5b5061049d7f000000000000000000000000000000000000000000000000000000000000000081565b3480156107f1575f5ffd5b506105df6108003660046142be565b6124c3565b348015610810575f5ffd5b506103e661081f366004613fcb565b60cc6020525f908152604090205473ffffffffffffffffffffffffffffffffffffffff1681565b348015610851575f5ffd5b5061041f6108603660046140eb565b61256d565b348015610870575f5ffd5b506105df61087f366004614359565b61264d565b34801561088f575f5ffd5b5061041f61089e3660046140bd565b6126fd565b3480156108ae575f5ffd5b506105df6108bd3660046140eb565b60ca6020525f908152604090205460ff1681565b3480156108dc575f5ffd5b5060c9546103e69073ffffffffffffffffffffffffffffffffffffffff1681565b348015610908575f5ffd5b5061041f6109173660046140eb565b612c2d565b348015610927575f5ffd5b5060d5546103e69073ffffffffffffffffffffffffffffffffffffffff1681565b348015610953575f5ffd5b5060d3546103e69073ffffffffffffffffffffffffffffffffffffffff1681565b61049d61098236600461405f565b612cd5565b348015610992575f5ffd5b5061041f6109a13660046143de565b61300c565b3480156109b1575f5ffd5b506103e66109c0366004613fcb565b6130c3565b3480156109d0575f5ffd5b506105df6109df366004613fcb565b60da6020525f908152604090205460ff1681565b3480156109fe575f5ffd5b5060655473ffffffffffffffffffffffffffffffffffffffff166103e6565b348015610a28575f5ffd5b5061049d610a37366004613fcb565b60d46020525f908152604090205481565b348015610a53575f5ffd5b506103e6610a62366004613fcb565b6130d3565b348015610a72575f5ffd5b506105df610a81366004614401565b6130e6565b348015610a91575f5ffd5b506105df610aa0366004613fcb565b60d96020525f908152604090205460ff1681565b348015610abf575f5ffd5b5061049d610ace36600461447a565b613146565b348015610ade575f5ffd5b5061041f610aed3660046140eb565b61348e565b348015610afd575f5ffd5b5060ce546103e69073ffffffffffffffffffffffffffffffffffffffff1681565b348015610b29575f5ffd5b5061041f610b383660046140eb565b61353e565b60db545f908190610100900473ffffffffffffffffffffffffffffffffffffffff163314610bc25760db546040517f8beee3a300000000000000000000000000000000000000000000000000000000815233600482015261010090910473ffffffffffffffffffffffffffffffffffffffff1660248201526044015b60405180910390fd5b5f83815260d9602052604090205460ff16610c09576040517f90c7cbf100000000000000000000000000000000000000000000000000000000815260040160405180910390fd5b5f84815260d860205260409020544614610c4f576040517f5e67e79300000000000000000000000000000000000000000000000000000000815260040160405180910390fd5b5f84815260d86020908152604080832086905560d990915290205460ff1615610ca4576040517f02181a1300000000000000000000000000000000000000000000000000000000815260040160405180910390fd5b610caf60d085613668565b5f94855260cc602052604090942054939473ffffffffffffffffffffffffffffffffffffffff9094169392505050565b60cf5473ffffffffffffffffffffffffffffffffffffffff16338114610d33576040517f8e4a23d6000000000000000000000000000000000000000000000000000000008152336004820152602401610bb9565b60ce805473ffffffffffffffffffffffffffffffffffffffff8381167fffffffffffffffffffffffff0000000000000000000000000000000000000000808416821790945560cf80549094169093556040519116915f917fca4f2f25d0898edd99413412fb94012f9e54ec8142f9b093e7720646a95b16a9908390a38173ffffffffffffffffffffffffffffffffffffffff168173ffffffffffffffffffffffffffffffffffffffff167ff9ffabca9c8276e99321725bcb43fb076a6c66a54b7f21c4e8146d8519b417dc60405160405180910390a35050565b60db545f908190610100900473ffffffffffffffffffffffffffffffffffffffff163314610e8d5760db546040517f8beee3a300000000000000000000000000000000000000000000000000000000815233600482015261010090910473ffffffffffffffffffffffffffffffffffffffff166024820152604401610bb9565b505f84815260d6602052604090205473ffffffffffffffffffffffffffffffffffffffff1680610eec576040517fce63ce1700000000000000000000000000000000000000000000000000000000815260048101869052602401610bb9565b5f84815260d86020526040902054469003610f35576040517f587df426000000000000000000000000000000000000000000000000000000008152466004820152602401610bb9565b5f84815260d86020908152604080832046905560cc825280832080547fffffffffffffffffffffffff00000000000000000000000000000000000000001673ffffffffffffffffffffffffffffffffffffffff861617905560d4825280832086905585835260da909152902080547fffffffffffffffffffffffffffffffffffffffffffffffffffffffffffffff00166001179055610fd3846130d3565b9150935093915050565b60ce5473ffffffffffffffffffffffffffffffffffffffff16331480159061101d575060335473ffffffffffffffffffffffffffffffffffffffff163314155b15611056576040517f8e4a23d6000000000000000000000000000000000000000000000000000000008152336004820152602401610bb9565b5f81815260da602052604090205460ff161561109e576040517ffe919e2800000000000000000000000000000000000000000000000000000000815260040160405180910390fd5b5f81815260da602052604080822080547fffffffffffffffffffffffffffffffffffffffffffffffffffffffffffffff001660011790555182917f3df150949161462acf3be30521d7da9e533b247327a254e55dd01875897a6df391a250565b60db545f908190610100900473ffffffffffffffffffffffffffffffffffffffff16331461117e5760db546040517f8beee3a300000000000000000000000000000000000000000000000000000000815233600482015261010090910473ffffffffffffffffffffffffffffffffffffffff166024820152604401610bb9565b611187846130d3565b5f85815260cc602052604081205491935073ffffffffffffffffffffffffffffffffffffffff90911691508360018111156111c4576111c461455a565b036111da575f84815260d8602052604090204690555b9250929050565b5f81815260cc602052604081205473ffffffffffffffffffffffffffffffffffffffff168061123f576040517f23f3c35700000000000000000000000000000000000000000000000000000000815260048101849052602401610bb9565b73ffffffffffffffffffffffffffffffffffffffff165f90815260d7602052604090205492915050565b7f8e94fed44239eb2314ab7a406345e6c5a8f0ccedf3b600de3d004e672c33abf4545f908082036112c6576040517fdd7e362100000000000000000000000000000000000000000000000000000000815260040160405180910390fd5b60018114611300576040517fab143c0600000000000000000000000000000000000000000000000000000000815260040160405180910390fd5b60027f8e94fed44239eb2314ab7a406345e6c5a8f0ccedf3b600de3d004e672c33abf45561132c613673565b61ffff61133f60e0850160c086016140eb565b73ffffffffffffffffffffffffffffffffffffffff16116113bd5761136a60e0840160c085016140eb565b6040517fb78dbaa700000000000000000000000000000000000000000000000000000000815273ffffffffffffffffffffffffffffffffffffffff909116600482015261ffff6024820152604401610bb9565b82355f90815260d46020526040812054907f000000000000000000000000000000000000000000000000000000000000000082036114665761140760e086013560208701356145b4565b341461145b5761141f60e086013560208701356145b4565b6040517f4a0944310000000000000000000000000000000000000000000000000000000081526004810191909152346024820152604401610bb9565b5060208401356114b2565b8460e0013534146114af576040517f4a09443100000000000000000000000000000000000000000000000000000000815260e08601356004820152346024820152604401610bb9565b505f5b60c9546040517fc487944000000000000000000000000000000000000000000000000000000000815286356004820152602481018490523360448201526020870135606482015273ffffffffffffffffffffffffffffffffffffffff9091169063c48794409083906084015f604051808303818588803b158015611534575f5ffd5b505af1158015611546573d5f5f3e3d5ffd5b505050505050505f8360c001602081019061156191906140eb565b73ffffffffffffffffffffffffffffffffffffffff1663ca408c2360e086013586353360408901356115976101008b018b6145c7565b6040518763ffffffff1660e01b81526004016115b795949392919061466f565b5f6040518083038185885af11580156115d2573d5f5f3e3d5ffd5b50505050506040513d5f823e601f3d9081017fffffffffffffffffffffffffffffffffffffffffffffffffffffffffffffffe01682016040526116189190810190614809565b905061164560017fa175e001c0e5684bc26302c2f9a55aec9f3936fe2aef558034003ef4da7fc77e614940565b8151146116b45761167760017fa175e001c0e5684bc26302c2f9a55aec9f3936fe2aef558034003ef4da7fc77e614940565b81516040517f15e8e42900000000000000000000000000000000000000000000000000000000815260048101929092526024820152604401610bb9565b61177c84356116c960c0870160a088016140eb565b604080516101208101909152806116e660e08a0160c08b016140eb565b73ffffffffffffffffffffffffffffffffffffffff168152602001856020015173ffffffffffffffffffffffffffffffffffffffff1681526020018860200135815260200188604001358152602001856040015181526020018860600135815260200188608001358152602001856060015181526020015f73ffffffffffffffffffffffffffffffffffffffff168152506136e0565b925061178e60e0850160c086016140eb565b60808201516040517f8eb7db570000000000000000000000000000000000000000000000000000000081528635600482015260248101919091526044810185905273ffffffffffffffffffffffffffffffffffffffff9190911690638eb7db57906064015f604051808303815f87803b158015611809575f5ffd5b505af115801561181b573d5f5f3e3d5ffd5b505050505060017f8e94fed44239eb2314ab7a406345e6c5a8f0ccedf3b600de3d004e672c33abf45550919050565b5f467f00000000000000000000000000000000000000000000000000000000000000001461189a577fffffffffffffffffffffffffeeeeffffffffffffffffffffffffffffffffeeef330161189c565b335b60d55490915073ffffffffffffffffffffffffffffffffffffffff80831691161461190b576040517f8e4a23d600000000000000000000000000000000000000000000000000000000815273ffffffffffffffffffffffffffffffffffffffff82166004820152602401610bb9565b73ffffffffffffffffffffffffffffffffffffffff82165f90815260ca602052604090205460ff16611969576040517fc630ef3c00000000000000000000000000000000000000000000000000000000815260040160405180910390fd5b604080517f000000000000000000000000000000000000000000000000000000000000000060208083019190915273ffffffffffffffffffffffffffffffffffffffff841682840152606080830187905283518084039091018152608090920190925280519101205f905f81815260d66020908152604080832080547fffffffffffffffffffffffff00000000000000000000000000000000000000001673ffffffffffffffffffffffffffffffffffffffff891690811790915580845260d783529281902084905551338152929350869284917f8f09d7694a9ae17acec5cf132d594d7eee23572f7fe132396ce72b1afbf7ef20910160405180910390a450505050565b611a76613788565b73ffffffffffffffffffffffffffffffffffffffff8116611ac3576040517fd92e233d00000000000000000000000000000000000000000000000000000000815260040160405180910390fd5b73ffffffffffffffffffffffffffffffffffffffff81165f90815260ca602052604090205460ff16611b21576040517fc630ef3c00000000000000000000000000000000000000000000000000000000815260040160405180910390fd5b73ffffffffffffffffffffffffffffffffffffffff81165f81815260ca602052604080822080547fffffffffffffffffffffffffffffffffffffffffffffffffffffffffffffff00169055517f4e04a497739580efe78a7ee09cdabe6f6fe90965c683292a519102ce5193b68a9190a250565b611b9c613788565b611ba4613809565b565b60605f611bb360d0613886565b9050805167ffffffffffffffff811115611bcf57611bcf6146aa565b604051908082528060200260200182016040528015611bf8578160200160208202803683370190505b5081519092505f5b81811015611c7457611c35838281518110611c1d57611c1d614953565b602002602001015160d061366890919063ffffffff16565b848281518110611c4757611c47614953565b73ffffffffffffffffffffffffffffffffffffffff90921660209283029190910190910152600101611c00565b50505090565b60ce5473ffffffffffffffffffffffffffffffffffffffff163314801590611cba575060335473ffffffffffffffffffffffffffffffffffffffff163314155b15611cf3576040517f8e4a23d6000000000000000000000000000000000000000000000000000000008152336004820152602401610bb9565b73ffffffffffffffffffffffffffffffffffffffff8116611d40576040517fd92e233d00000000000000000000000000000000000000000000000000000000815260040160405180910390fd5b60cf805473ffffffffffffffffffffffffffffffffffffffff8381167fffffffffffffffffffffffff0000000000000000000000000000000000000000831681179093556040519116919082907fca4f2f25d0898edd99413412fb94012f9e54ec8142f9b093e7720646a95b16a9905f90a35050565b5f81815260d460205260408082205460c95491517f53b9e632000000000000000000000000000000000000000000000000000000008152600481018290529091839173ffffffffffffffffffffffffffffffffffffffff909116906353b9e63290602401602060405180830381865afa158015611e35573d5f5f3e3d5ffd5b505050506040513d601f19601f82011682018060405250810190611e599190614980565b905073ffffffffffffffffffffffffffffffffffffffff8116611eab576040517f6410796800000000000000000000000000000000000000000000000000000000815260048101839052602401610bb9565b6040517f97bb3ce90000000000000000000000000000000000000000000000000000000081526004810183905273ffffffffffffffffffffffffffffffffffffffff8216906397bb3ce990602401602060405180830381865afa158015611f14573d5f5f3e3d5ffd5b505050506040513d601f19601f82011682018060405250810190611f389190614980565b949350505050565b5f54610100900460ff1615808015611f5e57505f54600160ff909116105b80611f775750303b158015611f7757505f5460ff166001145b612003576040517f08c379a000000000000000000000000000000000000000000000000000000000815260206004820152602e60248201527f496e697469616c697a61626c653a20636f6e747261637420697320616c72656160448201527f647920696e697469616c697a65640000000000000000000000000000000000006064820152608401610bb9565b5f80547fffffffffffffffffffffffffffffffffffffffffffffffffffffffffffffff00166001179055801561205f575f80547fffffffffffffffffffffffffffffffffffffffffffffffffffffffffffff00ff166101001790555b6120f67f00000000000000000000000000000000000000000000000000000000000000005f90815260da60209081526040808320805460017fffffffffffffffffffffffffffffffffffffffffffffffffffffffffffffff0091821681179092557f0000000000000000000000000000000000000000000000000000000000000000855260d9909352922080549091169091179055565b8015612158575f80547fffffffffffffffffffffffffffffffffffffffffffffffffffffffffffff00ff169055604051600181527f7f26b83ff96e1f2b6a682f133852f6798a09c465da95921460cefb38474024989060200160405180910390a15b50565b60335473ffffffffffffffffffffffffffffffffffffffff1633148015906121bb575061218b618000600f61499b565b73ffffffffffffffffffffffffffffffffffffffff163373ffffffffffffffffffffffffffffffffffffffff1614155b156121f4576040517f8e4a23d6000000000000000000000000000000000000000000000000000000008152336004820152602401610bb9565b60c9805473ffffffffffffffffffffffffffffffffffffffff9687167fffffffffffffffffffffffff00000000000000000000000000000000000000009182161790915560d580549587169582169590951790945560d380549386169385169390931790925560db8054918516610100027fffffffffffffffffffffff0000000000000000000000000000000000000000ff90921691909117905560dc8054919093169116179055565b60606122aa60d0613886565b905090565b60db54610100900473ffffffffffffffffffffffffffffffffffffffff16331461232b5760db546040517f8beee3a300000000000000000000000000000000000000000000000000000000815233600482015261010090910473ffffffffffffffffffffffffffffffffffffffff166024820152604401610bb9565b612336838383613892565b505050565b612343613788565b611ba45f61390b565b5f8061235960d087613668565b6040517fb473318e00000000000000000000000000000000000000000000000000000000815260048101879052602481018690526044810185905290915073ffffffffffffffffffffffffffffffffffffffff82169063b473318e90606401602060405180830381865afa1580156123d3573d5f5f3e3d5ffd5b505050506040513d601f19601f820116820180604052508101906123f791906149c7565b9695505050505050565b606554339073ffffffffffffffffffffffffffffffffffffffff1681146124aa576040517f08c379a000000000000000000000000000000000000000000000000000000000815260206004820152602960248201527f4f776e61626c6532537465703a2063616c6c6572206973206e6f74207468652060448201527f6e6577206f776e657200000000000000000000000000000000000000000000006064820152608401610bb9565b6121588161390b565b6124bb613788565b611ba461393c565b60d3546040517f18b7fc220000000000000000000000000000000000000000000000000000000081525f9173ffffffffffffffffffffffffffffffffffffffff16906318b7fc2290612523908a908a908a908a908a908a90600401614a87565b602060405180830381865afa15801561253e573d5f5f3e3d5ffd5b505050506040513d601f19601f820116820180604052508101906125629190614b12565b979650505050505050565b60335473ffffffffffffffffffffffffffffffffffffffff1633148015906125cd575061259d618000600f61499b565b73ffffffffffffffffffffffffffffffffffffffff163373ffffffffffffffffffffffffffffffffffffffff1614155b15612606576040517f8e4a23d6000000000000000000000000000000000000000000000000000000008152336004820152602401610bb9565b60dc80547fffffffffffffffffffffffff00000000000000000000000000000000000000001673ffffffffffffffffffffffffffffffffffffffff92909216919091179055565b60d3546040517fda24b3ee0000000000000000000000000000000000000000000000000000000081525f9173ffffffffffffffffffffffffffffffffffffffff169063da24b3ee906126b1908c908c908c908c908c908c908c908c90600401614b2d565b602060405180830381865afa1580156126cc573d5f5f3e3d5ffd5b505050506040513d601f19601f820116820180604052508101906126f09190614b12565b9998505050505050505050565b612705613788565b73ffffffffffffffffffffffffffffffffffffffff8116612752576040517fd92e233d00000000000000000000000000000000000000000000000000000000815260040160405180910390fd5b5f61275e60d084613997565b5090508015612799576040517f24591d8900000000000000000000000000000000000000000000000000000000815260040160405180910390fd5b828273ffffffffffffffffffffffffffffffffffffffff16633408e4706040518163ffffffff1660e01b8152600401602060405180830381865afa1580156127e3573d5f5f3e3d5ffd5b505050506040513d601f19601f8201168201806040525081019061280791906149c7565b1461283e576040517fa179f8c900000000000000000000000000000000000000000000000000000000815260040160405180910390fd5b5f8273ffffffffffffffffffffffffffffffffffffffff1663946ebad16040518163ffffffff1660e01b8152600401602060405180830381865afa158015612888573d5f5f3e3d5ffd5b505050506040513d601f19601f820116820180604052508101906128ac9190614980565b90505f8373ffffffffffffffffffffffffffffffffffffffff16636e9960c36040518163ffffffff1660e01b8152600401602060405180830381865afa1580156128f8573d5f5f3e3d5ffd5b505050506040513d601f19601f8201168201806040525081019061291c9190614980565b90505f8473ffffffffffffffffffffffffffffffffffffffff1663960dcf246040518163ffffffff1660e01b8152600401602060405180830381865afa158015612968573d5f5f3e3d5ffd5b505050506040513d601f19601f8201168201806040525081019061298c91906149c7565b90505f8573ffffffffffffffffffffffffffffffffffffffff16633591c1a06040518163ffffffff1660e01b8152600401602060405180830381865afa1580156129d8573d5f5f3e3d5ffd5b505050506040513d601f19601f820116820180604052508101906129fc9190614980565b90505f8673ffffffffffffffffffffffffffffffffffffffff1663b8c2f66f6040518163ffffffff1660e01b8152600401602060405180830381865afa158015612a48573d5f5f3e3d5ffd5b505050506040513d601f19601f82011682018060405250810190612a6c91906149c7565b905073ffffffffffffffffffffffffffffffffffffffff82163014612ad5576040517fdd381a4c00000000000000000000000000000000000000000000000000000000815273ffffffffffffffffffffffffffffffffffffffff83166004820152602401610bb9565b612ae08884876139b2565b5f88815260cc6020908152604080832080547fffffffffffffffffffffffff00000000000000000000000000000000000000001673ffffffffffffffffffffffffffffffffffffffff8a1617905560d4825280832086905560d89091529020469055612b4e88886001613892565b60d3546040517f66e8a86b000000000000000000000000000000000000000000000000000000008152600481018a90526024810183905273ffffffffffffffffffffffffffffffffffffffff909116906366e8a86b906044015f604051808303815f87803b158015612bbe575f5ffd5b505af1158015612bd0573d5f5f3e3d5ffd5b505060405173ffffffffffffffffffffffffffffffffffffffff8881168252871692508a91507f1e9125bc72db22c58abff6821d7333551967e26454b419ffa958e4cb8ef476009060200160405180910390a35050505050505050565b612c35613c3a565b612c3e8161390b565b6121587f00000000000000000000000000000000000000000000000000000000000000005f90815260da60209081526040808320805460017fffffffffffffffffffffffffffffffffffffffffffffffffffffffffffffff0091821681179092557f0000000000000000000000000000000000000000000000000000000000000000855260d9909352922080549091169091179055565b7f8e94fed44239eb2314ab7a406345e6c5a8f0ccedf3b600de3d004e672c33abf4545f90808203612d32576040517fdd7e362100000000000000000000000000000000000000000000000000000000815260040160405180910390fd5b60018114612d6c576040517fab143c0600000000000000000000000000000000000000000000000000000000815260040160405180910390fd5b60027f8e94fed44239eb2314ab7a406345e6c5a8f0ccedf3b600de3d004e672c33abf455612d98613673565b82355f90815260d460205260409020547f00000000000000000000000000000000000000000000000000000000000000008103612e1d5783602001353414612e18576040517f4a09443100000000000000000000000000000000000000000000000000000000815260208501356004820152346024820152604401610bb9565b612e5d565b3415612e5d576040517f4a0944310000000000000000000000000000000000000000000000000000000081525f6004820152346024820152604401610bb9565b60c9546040517fc487944000000000000000000000000000000000000000000000000000000000815285356004820152602481018390523360448201526020860135606482015273ffffffffffffffffffffffffffffffffffffffff9091169063c48794409034906084015f604051808303818588803b158015612edf575f5ffd5b505af1158015612ef1573d5f5f3e3d5ffd5b50612fe194505086359250612f11915050610120860161010087016140eb565b6040805161012081018252338152906020820190612f359060608a01908a016140eb565b73ffffffffffffffffffffffffffffffffffffffff16815260208881013590820152606080890135604083015201612f7060808901896145c7565b8080601f0160208091040260200160405190810160405280939291908181526020018383808284375f9201919091525050509082525060a0880135602082015260c08801356040820152606001612fca60e0890189614bac565b612fd391614c10565b81525f6020909101526136e0565b60017f8e94fed44239eb2314ab7a406345e6c5a8f0ccedf3b600de3d004e672c33abf4559392505050565b613014613788565b5f82815260d86020526040902054461461305a576040517f02181a1300000000000000000000000000000000000000000000000000000000815260040160405180910390fd5b5f82815260d9602052604080822080547fffffffffffffffffffffffffffffffffffffffffffffffffffffffffffffff00168415159081179091559051909184917f02629feb109d94b16a367231d248ba81c462f51ce5b984835f150f1c9f49ed259190a35050565b5f6130cd826130d3565b92915050565b5f6130df60d083613997565b9392505050565b60d3546040517fe896760d0000000000000000000000000000000000000000000000000000000081525f9173ffffffffffffffffffffffffffffffffffffffff169063e896760d90612523908a908a908a908a908a908a90600401614cb3565b60ce545f9073ffffffffffffffffffffffffffffffffffffffff163314801590613188575060335473ffffffffffffffffffffffffffffffffffffffff163314155b156131c1576040517f8e4a23d6000000000000000000000000000000000000000000000000000000008152336004820152602401610bb9565b7f8e94fed44239eb2314ab7a406345e6c5a8f0ccedf3b600de3d004e672c33abf4545f81900361321d576040517fdd7e362100000000000000000000000000000000000000000000000000000000815260040160405180910390fd5b60018114613257576040517fab143c0600000000000000000000000000000000000000000000000000000000815260040160405180910390fd5b60027f8e94fed44239eb2314ab7a406345e6c5a8f0ccedf3b600de3d004e672c33abf455613283613673565b61328e8b8a8c6139b2565b5f8b815260cc6020908152604080832080547fffffffffffffffffffffffff00000000000000000000000000000000000000001673ffffffffffffffffffffffffffffffffffffffff8f1690811790915560d483528184208d905560d8909252808320469055517f88c7c5d20000000000000000000000000000000000000000000000000000000081526388c7c5d290613338908f908e908d908d908d908d908d90600401614d64565b6020604051808303815f875af1158015613354573d5f5f3e3d5ffd5b505050506040513d601f19601f820116820180604052508101906133789190614980565b90506133868c826001613892565b60d3546040517f66e8a86b000000000000000000000000000000000000000000000000000000008152600481018e90525f602482015273ffffffffffffffffffffffffffffffffffffffff909116906366e8a86b906044015f604051808303815f87803b1580156133f5575f5ffd5b505af1158015613407573d5f5f3e3d5ffd5b505060405173ffffffffffffffffffffffffffffffffffffffff8e811682528b1692508e91507f1e9125bc72db22c58abff6821d7333551967e26454b419ffa958e4cb8ef476009060200160405180910390a3505060017f8e94fed44239eb2314ab7a406345e6c5a8f0ccedf3b600de3d004e672c33abf455509798975050505050505050565b613496613788565b6065805473ffffffffffffffffffffffffffffffffffffffff83167fffffffffffffffffffffffff000000000000000000000000000000000000000090911681179091556134f960335473ffffffffffffffffffffffffffffffffffffffff1690565b73ffffffffffffffffffffffffffffffffffffffff167f38d16b8cac22d99fc7c124b9cd0de2d3fa1faef420bfe791d8c362d765e2270060405160405180910390a350565b613546613788565b73ffffffffffffffffffffffffffffffffffffffff8116613593576040517fd92e233d00000000000000000000000000000000000000000000000000000000815260040160405180910390fd5b73ffffffffffffffffffffffffffffffffffffffff81165f90815260ca602052604090205460ff16156135f2576040517fec27343900000000000000000000000000000000000000000000000000000000815260040160405180910390fd5b73ffffffffffffffffffffffffffffffffffffffff81165f81815260ca602052604080822080547fffffffffffffffffffffffffffffffffffffffffffffffffffffffffffffff00166001179055517f2eae91be1021e05cc8076387b0182458ae474ae44ee44cc59aefda6ca53c1f429190a250565b5f6130df8383613c9a565b60975460ff1615611ba4576040517f08c379a000000000000000000000000000000000000000000000000000000000815260206004820152601060248201527f5061757361626c653a20706175736564000000000000000000000000000000006044820152606401610bb9565b5f5f6136ec8433613d23565b73ffffffffffffffffffffffffffffffffffffffff811661010085015290505f61371760d087613668565b6040517f12f43dab00000000000000000000000000000000000000000000000000000000815290915073ffffffffffffffffffffffffffffffffffffffff8216906312f43dab9061376c908790600401614eed565b6020604051808303815f875af11580156123d3573d5f5f3e3d5ffd5b60335473ffffffffffffffffffffffffffffffffffffffff163314611ba4576040517f08c379a000000000000000000000000000000000000000000000000000000000815260206004820181905260248201527f4f776e61626c653a2063616c6c6572206973206e6f7420746865206f776e65726044820152606401610bb9565b613811613d4d565b609780547fffffffffffffffffffffffffffffffffffffffffffffffffffffffffffffff001690557f5db9ee0a495bf2e6ff9c91a7834c1ba4fdd244a5e8aa4e537bd38aeae4b073aa335b60405173ffffffffffffffffffffffffffffffffffffffff909116815260200160405180910390a1565b60605f6130df83613db9565b61389e60d08484613dc4565b508080156138d457507f00000000000000000000000000000000000000000000000000000000000000006138d260d0613de6565b115b15612336576040517f601b688200000000000000000000000000000000000000000000000000000000815260040160405180910390fd5b606580547fffffffffffffffffffffffff000000000000000000000000000000000000000016905561215881613df0565b613944613673565b609780547fffffffffffffffffffffffffffffffffffffffffffffffffffffffffffffff001660011790557f62e78cea01bee320cd4e420270b5ea74000d11b0c9f74754ebdbfc544b05a25861385c3390565b5f8080806139a58686613e66565b9097909650945050505050565b825f036139eb576040517fc84885d400000000000000000000000000000000000000000000000000000000815260040160405180910390fd5b65ffffffffffff831115613a2b576040517f8f620a0600000000000000000000000000000000000000000000000000000000815260040160405180910390fd5b468303613a64576040517f717a165600000000000000000000000000000000000000000000000000000000815260040160405180910390fd5b73ffffffffffffffffffffffffffffffffffffffff8116613ab1576040517fd92e233d00000000000000000000000000000000000000000000000000000000815260040160405180910390fd5b81613ae8576040517f2d4d012f00000000000000000000000000000000000000000000000000000000815260040160405180910390fd5b73ffffffffffffffffffffffffffffffffffffffff81165f90815260ca602052604090205460ff16613b46576040517fc630ef3c00000000000000000000000000000000000000000000000000000000815260040160405180910390fd5b5f82815260da602052604090205460ff16613b90576040517f04a0b7e900000000000000000000000000000000000000000000000000000000815260048101839052602401610bb9565b60c95473ffffffffffffffffffffffffffffffffffffffff16613bdf576040517f856d5b7700000000000000000000000000000000000000000000000000000000815260040160405180910390fd5b5f83815260cc602052604090205473ffffffffffffffffffffffffffffffffffffffff1615612336576040517f6cf1231200000000000000000000000000000000000000000000000000000000815260040160405180910390fd5b7f8e94fed44239eb2314ab7a406345e6c5a8f0ccedf3b600de3d004e672c33abf4805460019091558015612158576040517fdf3a8fdd00000000000000000000000000000000000000000000000000000000815260040160405180910390fd5b5f81815260028301602052604081205480151580613cbd5750613cbd8484613e9e565b6130df576040517f08c379a000000000000000000000000000000000000000000000000000000000815260206004820152601e60248201527f456e756d657261626c654d61703a206e6f6e6578697374656e74206b657900006044820152606401610bb9565b5f73ffffffffffffffffffffffffffffffffffffffff8316613d465750806130cd565b5090919050565b60975460ff16611ba4576040517f08c379a000000000000000000000000000000000000000000000000000000000815260206004820152601460248201527f5061757361626c653a206e6f74207061757365640000000000000000000000006044820152606401610bb9565b60606130cd82613ea9565b5f611f38848473ffffffffffffffffffffffffffffffffffffffff8516613eb5565b5f6130cd82613ed1565b6033805473ffffffffffffffffffffffffffffffffffffffff8381167fffffffffffffffffffffffff0000000000000000000000000000000000000000831681179093556040519116919082907f8be0079c531659141344cd1fd0a4f28419497f9722a3daafe3b4186f6b6457e0905f90a35050565b5f818152600283016020526040812054819080613e9357613e878585613e9e565b92505f91506111da9050565b6001925090506111da565b5f6130df8383613edb565b60605f6130df83613ef2565b5f8281526002840160205260408120829055611f388484613f4b565b5f6130cd82613f56565b5f81815260018301602052604081205415156130df565b6060815f01805480602002602001604051908101604052809291908181526020018280548015613f3f57602002820191905f5260205f20905b815481526020019060010190808311613f2b575b50505050509050919050565b5f6130df8383613f5f565b5f6130cd825490565b5f818152600183016020526040812054613fa457508154600181810184555f8481526020808220909301849055845484825282860190935260409020919091556130cd565b505f6130cd565b5f5f60408385031215613fbc575f5ffd5b50508035926020909101359150565b5f60208284031215613fdb575f5ffd5b5035919050565b5f5f5f60608486031215613ff4575f5ffd5b505081359360208301359350604090920135919050565b803560028110614019575f5ffd5b919050565b5f5f6040838503121561402f575f5ffd5b8235915061403f6020840161400b565b90509250929050565b5f6101208284031215614059575f5ffd5b50919050565b5f6020828403121561406f575f5ffd5b813567ffffffffffffffff811115614085575f5ffd5b611f3884828501614048565b73ffffffffffffffffffffffffffffffffffffffff81168114612158575f5ffd5b803561401981614091565b5f5f604083850312156140ce575f5ffd5b8235915060208301356140e081614091565b809150509250929050565b5f602082840312156140fb575f5ffd5b81356130df81614091565b602080825282518282018190525f918401906040840190835b8181101561415357835173ffffffffffffffffffffffffffffffffffffffff1683526020938401939092019160010161411f565b509095945050505050565b5f5f5f5f5f60a08688031215614172575f5ffd5b853561417d81614091565b9450602086013561418d81614091565b9350604086013561419d81614091565b925060608601356141ad81614091565b915060808601356141bd81614091565b809150509295509295909350565b602080825282518282018190525f918401906040840190835b818110156141535783518352602093840193909201916001016141e4565b8015158114612158575f5ffd5b5f5f5f60608486031215614221575f5ffd5b83359250602084013561423381614091565b9150604084013561424381614202565b809150509250925092565b5f5f5f5f60808587031215614261575f5ffd5b5050823594602084013594506040840135936060013592509050565b5f5f83601f84011261428d575f5ffd5b50813567ffffffffffffffff8111156142a4575f5ffd5b6020830191508360208260051b85010111156111da575f5ffd5b5f5f5f5f5f5f60a087890312156142d3575f5ffd5b863595506020870135945060408701359350606087013567ffffffffffffffff8111156142fe575f5ffd5b87016060818a03121561430f575f5ffd5b9250608087013567ffffffffffffffff81111561432a575f5ffd5b61433689828a0161427d565b979a9699509497509295939492505050565b803561ffff81168114614019575f5ffd5b5f5f5f5f5f5f5f5f60e0898b031215614370575f5ffd5b8835975060208901359650604089013595506060890135945061439560808a01614348565b935060a089013567ffffffffffffffff8111156143b0575f5ffd5b6143bc8b828c0161427d565b90945092506143cf905060c08a0161400b565b90509295985092959890939650565b5f5f604083850312156143ef575f5ffd5b8235915060208301356140e081614202565b5f5f5f5f5f5f868803610140811215614418575f5ffd5b87359650602088013595506040880135945060c07fffffffffffffffffffffffffffffffffffffffffffffffffffffffffffffffa082011215614459575f5ffd5b5060608701925061012087013567ffffffffffffffff81111561432a575f5ffd5b5f5f5f5f5f5f5f5f5f60e08a8c031215614492575f5ffd5b8935985060208a01356144a481614091565b975060408a0135965060608a0135955060808a01356144c281614091565b945060a08a013567ffffffffffffffff8111156144dd575f5ffd5b8a01601f81018c136144ed575f5ffd5b803567ffffffffffffffff811115614503575f5ffd5b8c6020828401011115614514575f5ffd5b6020919091019450925060c08a013567ffffffffffffffff811115614537575f5ffd5b6145438c828d0161427d565b915080935050809150509295985092959850929598565b7f4e487b71000000000000000000000000000000000000000000000000000000005f52602160045260245ffd5b7f4e487b71000000000000000000000000000000000000000000000000000000005f52601160045260245ffd5b808201808211156130cd576130cd614587565b5f5f83357fffffffffffffffffffffffffffffffffffffffffffffffffffffffffffffffe18436030181126145fa575f5ffd5b83018035915067ffffffffffffffff821115614614575f5ffd5b6020019150368190038213156111da575f5ffd5b81835281816020850137505f602082840101525f60207fffffffffffffffffffffffffffffffffffffffffffffffffffffffffffffffe0601f840116840101905092915050565b85815273ffffffffffffffffffffffffffffffffffffffff85166020820152836040820152608060608201525f612562608083018486614628565b7f4e487b71000000000000000000000000000000000000000000000000000000005f52604160045260245ffd5b60405160a0810167ffffffffffffffff811182821017156146fa576146fa6146aa565b60405290565b604051601f82017fffffffffffffffffffffffffffffffffffffffffffffffffffffffffffffffe016810167ffffffffffffffff81118282101715614747576147476146aa565b604052919050565b5f67ffffffffffffffff821115614768576147686146aa565b50601f017fffffffffffffffffffffffffffffffffffffffffffffffffffffffffffffffe01660200190565b5f82601f8301126147a3575f5ffd5b81516147b66147b18261474f565b614700565b8181528460208386010111156147ca575f5ffd5b8160208501602083015e5f918101602001919091529392505050565b5f67ffffffffffffffff8211156147ff576147ff6146aa565b5060051b60200190565b5f60208284031215614819575f5ffd5b815167ffffffffffffffff81111561482f575f5ffd5b820160a08185031215614840575f5ffd5b6148486146d7565b81518152602082015161485a81614091565b6020820152604082015167ffffffffffffffff811115614878575f5ffd5b61488486828501614794565b604083015250606082015167ffffffffffffffff8111156148a3575f5ffd5b8201601f810186136148b3575f5ffd5b80516148c16147b1826147e6565b8082825260208201915060208360051b8501019250888311156148e2575f5ffd5b602084015b8381101561492357805167ffffffffffffffff811115614905575f5ffd5b6149148b602083890101614794565b845250602092830192016148e7565b506060850152505050608091820151918101919091529392505050565b818103818111156130cd576130cd614587565b7f4e487b71000000000000000000000000000000000000000000000000000000005f52603260045260245ffd5b5f60208284031215614990575f5ffd5b81516130df81614091565b73ffffffffffffffffffffffffffffffffffffffff81811683821601908111156130cd576130cd614587565b5f602082840312156149d7575f5ffd5b5051919050565b5f5f83357fffffffffffffffffffffffffffffffffffffffffffffffffffffffffffffffe1843603018112614a11575f5ffd5b830160208101925035905067ffffffffffffffff811115614a30575f5ffd5b8036038213156111da575f5ffd5b8183525f7f07ffffffffffffffffffffffffffffffffffffffffffffffffffffffffffffff831115614a6e575f5ffd5b8260051b80836020870137939093016020019392505050565b86815285602082015284604082015260a0606082015261ffff614aa985614348565b1660a08201525f6020850135614abe81614091565b73ffffffffffffffffffffffffffffffffffffffff1660c0830152614ae660408601866149de565b606060e0850152614afc61010085018284614628565b91505082810360808401526126f0818587614a3e565b5f60208284031215614b22575f5ffd5b81516130df81614202565b88815287602082015286604082015285606082015261ffff8516608082015260e060a08201525f614b6260e083018587614a3e565b905060028310614b99577f4e487b71000000000000000000000000000000000000000000000000000000005f52602160045260245ffd5b8260c08301529998505050505050505050565b5f5f83357fffffffffffffffffffffffffffffffffffffffffffffffffffffffffffffffe1843603018112614bdf575f5ffd5b83018035915067ffffffffffffffff821115614bf9575f5ffd5b6020019150600581901b36038213156111da575f5ffd5b5f614c1d6147b1846147e6565b8381526020810190600585901b840136811115614c38575f5ffd5b845b8181101561415357803567ffffffffffffffff811115614c58575f5ffd5b860136601f820112614c68575f5ffd5b8035614c766147b18261474f565b818152366020838501011115614c8a575f5ffd5b816020840160208301375f60208383010152808752505050602084019350602081019050614c3a565b8681528560208201528460408201525f843560ff8116808214614cd4575f5ffd5b6060840152506020850135614ce881614202565b1515608083015261ffff614cfe60408701614348565b1660a0830152614d10606086016140b2565b73ffffffffffffffffffffffffffffffffffffffff1660c0830152608085013560e083015260a08501356101008301526101406101208301819052614d589083018486614a3e565b98975050505050505050565b87815286602082015273ffffffffffffffffffffffffffffffffffffffff8616604082015260a060608201525f614d9f60a083018688614628565b8281036080840152838152602080820190600586901b830101865f5b87811015614e17577fffffffffffffffffffffffffffffffffffffffffffffffffffffffffffffffe0858403018452614df4828a6149de565b614dff858284614628565b60209687019690955093909301925050600101614dbb565b50909c9b505050505050505050505050565b5f81518084528060208401602086015e5f6020828601015260207fffffffffffffffffffffffffffffffffffffffffffffffffffffffffffffffe0601f83011685010191505092915050565b5f82825180855260208501945060208160051b830101602085015f5b83811015614ee1577fffffffffffffffffffffffffffffffffffffffffffffffffffffffffffffffe0858403018852614ecb838351614e29565b6020988901989093509190910190600101614e91565b50909695505050505050565b60208152614f1460208201835173ffffffffffffffffffffffffffffffffffffffff169052565b5f6020830151614f3c604084018273ffffffffffffffffffffffffffffffffffffffff169052565b506040830151606083015260608301516080830152608083015161012060a0840152614f6c610140840182614e29565b905060a084015160c084015260c084015160e084015260e08401517fffffffffffffffffffffffffffffffffffffffffffffffffffffffffffffffe084830301610100850152614fbc8282614e75565b915050610100840151614fe861012085018273ffffffffffffffffffffffffffffffffffffffff169052565b50939250505056fea26469706673582212207846f794583f5dad5ef9538461e759150abc240877856b9a9ae488e4338a940a64736f6c634300081c0033","linkReferences":{}},"methodIdentifiers":{"L1_CHAIN_ID()":"2f90b184","MAX_NUMBER_OF_ZK_CHAINS()":"8f8d37a8","__DEPRECATED_migrationPaused()":"8916251f","acceptAdmin()":"0e18b681","acceptOwnership()":"79ba5097","addChainTypeManager(address)":"ff5a62a1","addTokenAssetId(bytes32)":"1c50cfea","admin()":"f851a440","assetIdIsRegistered(bytes32)":"e0ab6368","assetRouter()":"bc0aac10","baseToken(uint256)":"59ec65a2","baseTokenAssetId(uint256)":"e52db4ca","chainAssetHandler()":"70d8af87","chainRegistrationSender()":"669e1e46","chainTypeManager(uint256)":"9d5bd3da","chainTypeManagerIsRegistered(address)":"b93c9366","createNewChain(uint256,address,bytes32,uint256,address,bytes,bytes[])":"f113c88b","ctmAssetIdFromAddress(address)":"70fccb52","ctmAssetIdFromChainId(uint256)":"24358c61","ctmAssetIdToAddress(bytes32)":"07621f84","forwardedBridgeBurnSetSettlementLayer(uint256,uint256)":"0641e4f7","forwardedBridgeConfirmTransferResult(uint256,uint8)":"22409213","forwardedBridgeMint(bytes32,uint256,bytes32)":"17fa3751","getAllZKChainChainIDs()":"68b8d331","getAllZKChains()":"49707f31","getHyperchain(uint256)":"dead6f7f","getZKChain(uint256)":"e680c4c1","initialize(address)":"c4d66de8","initializeV2()":"5cd8a76b","l1CtmDeployer()":"cbe83612","l2TransactionBaseCost(uint256,uint256,uint256,uint256)":"71623274","messageRoot()":"d4b9f4fa","owner()":"8da5cb5b","pause()":"8456cb59","paused()":"5c975abb","pendingOwner()":"e30c3978","proveL1ToL2TransactionStatus(uint256,bytes32,uint256,uint256,uint16,bytes32[],uint8)":"b292f5f1","proveL2LogInclusion(uint256,uint256,uint256,(uint8,bool,uint16,address,bytes32,bytes32),bytes32[])":"e6d9923b","proveL2MessageInclusion(uint256,uint256,uint256,(uint16,address,bytes),bytes32[])":"99c16d1a","registerAlreadyDeployedZKChain(uint256,address)":"b5662c5d","registerNewZKChain(uint256,address,bool)":"7011be85","registerSettlementLayer(uint256,bool)":"dc8e4b26","removeChainTypeManager(address)":"332b96dc","renounceOwnership()":"715018a6","requestL2TransactionDirect((uint256,uint256,address,uint256,bytes,uint256,uint256,bytes[],address))":"d52471c1","requestL2TransactionTwoBridges((uint256,uint256,uint256,uint256,uint256,address,address,uint256,bytes))":"24fd57fb","setAddresses(address,address,address,address,address)":"5dd68acd","setAddressesV31(address)":"a17223b0","setCTMAssetAddress(bytes32,address)":"2dbcf55f","setPendingAdmin(address)":"4dd18bf5","settlementLayer(uint256)":"671a7131","sharedBridge()":"38720778","transferOwnership(address)":"f2fde38b","unpause()":"3f4ba83a","whitelistedSettlementLayers(uint256)":"e9420f8c"},"id":80}